:020000040000FA
:10000000D80A0020D5000000B5550000654D00005D
:10001000E7000000E7000000E7000000E700000044
:10002000E7000000E7000000E7000000C1770000E3
:10003000E7000000E7000000B55900004D7E000019
:10004000E7000000E7000000E7000000E700000014
:10005000E7000000E7000000E700000009090000D9
:10006000E7000000E7000000E7000000A9560000DC
:10007000E7000000E700000099190000018400007B
:10008000E7000000E7000000AD8400005985000093
:10009000E700000011190000E7000000E700000081
:1000A000E7000000E7000000E7000000E7000000B4
:1000B000E7000000E7000000A57F0000E700000067
:1000C0000348854600F088FB00480047359B000048
:1000D000D80A00200548804705480047FEE7FEE7AC
:1000E000FEE7FEE7FEE7FEE7704700009D7F0000A9
:1000F000C100000030B50B4601460020202201243B
:1001000009E00D46D5409D4205D31D469540491B4B
:100110002546954040191546521E002DF1DC30BD94
:1001200070B500242546002801DA01244042002948
:1001300001DA01254942FFF7DDFFAC4200D0404221
:10014000002C00D0494270BD03460B439B0703D0EF
:1001500009E008C9121F08C0042AFAD203E00B788C
:100160000370401C491C521EF9D27047D2B201E004
:100170000270401C491EFBD270470022F6E710B502
:1001800013460A4604461946FFF7F0FF204610BD05
:1001900030B504460020034600E05B1C934203D2C6
:1001A000E05CCD5C401BF8D030BDF8B502464A405B
:1001B000D40F42004B0052085B089A4202D202461A
:1001C000084611464A0023D0C30D4A00DDB2120E84
:1001D000AD1A202D35DA49020126490AF6058A1999
:1001E000002C00D0524220214F1B1146B9402A4119
:1001F0001018C20D9A4221D0002C17D0012D08DC16
:10020000DA05801AD20F8019D207DBB200F04BFA60
:10021000F8BDDA05801A012340001B06C0188018BB
:100220005A428018CA0F1043490007E04908C20724
:100230001143DA05801A80194008801800F02BFA63
:10024000F8BD61000122511A001BF7E70122D20715
:100250005140AAE70122D2075040A6E7024670B5F6
:100260004A40D30FDB0740002DD04A002AD0010EB0
:10027000140E000212020919400A520A8418E501FC
:1002800004465443000A120A2E045043A41942198A
:10029000200CC543AA18120C0125AD03521C52199B
:1002A00012047F39240400D0521C104301D44000B2
:1002B000491EC2B20C06C0092018401C4008802A02
:1002C00002D003E0002070BD40084000002900DAA1
:1002D0000020184370BD70B502464A40D50F40005B
:1002E0004A00ED0740085208002814D0002A12D016
:1002F000C40DD30D41020120C0055202490A520A21
:10030000E41A091812187D34914201D3641C00E0EC
:100310004900002C01DA002070BD0023914201D376
:10032000891A0343400849000028F7D100290AD060
:10033000914202D10121C90705E0914201D2012178
:1003400001E00121C943E005C018401900F0A3F9FC
:1003500070BD0000F0B507460846584087B0C00F92
:10036000049048000E46590040084908BC1A8841CC
:1003700005D2384631461E4617460B4602465800FF
:10038000400810434CD0300D039040055900400DFB
:10039000490D0590401A0290402872DA1803012195
:1003A000000B09050843019004980092002805D02D
:1003B0000199524200208841009201900298402108
:1003C0000A1A0199009800F043F905460C466B465D
:1003D00007CB00F04DF9C0197141039A0E0D0023AF
:1003E000D71756401A467A40164344D0049A002A3A
:1003F0002DD0029A012A039A15DC1205C01A9141E8
:1004000001263605001C7141D20F059ED2070093CC
:10041000019202962A46234600F08BF907B0F0BD00
:1004200038463146FAE71605224A0F46B218C01A76
:10043000B74101210905001C4F4100187F411146B9
:1004400018187941E20F10436D19644113E0E20777
:100450006D0815436408C2071443039A0126120568
:10046000C01A91413605001C7141CE074008304347
:100470004908C01851412A46234600F04DF9CDE7FE
:10048000FFE7049801224000C117121A00238B4194
:1004900004983146C417381AA141EEE730B401245C
:1004A000E407634030BC55E730B40124E407614001
:1004B00030BC4FE70000E0FFF0B51FB488B00B99E7
:1004C0000998002448400999C00F4900490809913A
:1004D000C0070B990090490049080B9109990898A9
:1004E000A64608431CD00B990A98084318D00998CF
:1004F00001244000420D4800410D099824050003E5
:10050000000B204309900B980003000B20430B9035
:1005100050181C494018002201901446104605E06E
:10052000002001460DB0F0BD032801DA034600E0CB
:1005300003239C46C11A0AAE0AE05F0008ADED5BDA
:100540004F00F75B7D430027AA187C41491C5B1EC6
:100550006145F2DD410004AB5A522104120C0A43FA
:10056000240C401C0828DFDB01980290009970469B
:1005700001910090059B049A0799069800F0D9F81C
:10058000D0E700000DFCFFFFC217C10F504010B5AF
:100590004018CA079623002100F085F810BD00001E
:1005A0000EB5C217C10F5040CA0740180021054BB5
:1005B0000293019200910A460B4600F0BAF803B08C
:1005C00000BD000033040000410040020122400A47
:1005D000D205090E80187F2901DA0020704796297C
:1005E00003DC9622511AC8407047963988407047FC
:1005F000C20FD207400040080BD0C10D0723DB011A
:10060000C91840020905400A1143C20840071143B6
:100610007047002001467047CB0FDB07490010B53B
:10062000490802460A4307D00A0D07240903E401DA
:10063000090B121B002A01DC002010BDC900440F69
:100640000C43C100E018D205801800F024F810BD5A
:1006500010B5202A04DB0146203A9140002010BD4D
:10066000914020239C1A0346E3401943904010BD5B
:1006700010B5202A06DBCB170846203A1041C117D7
:100680000B4306E00B461341D0402024A21A9140B0
:100690000843194610BD002904DA401C490001D165
:1006A00040084000704770B40024050C05D11024A8
:1006B000000402D1002921D01124050E01D100022D
:1006C0000834050F01D10001241D850F01D18000E0
:1006D000A41C002801DB4000641C002908D0202550
:1006E0002E1B0D46F540A14000D0012129430843AF
:1006F00001061B1B000ADB1D02D5002070BC7047E1
:10070000DB05181880180029F8DA401C4900F5D1DB
:1007100070BC40084000704710B5002B08DA002478
:10072000401C614192185B411A4301D140084000CE
:1007300010BDF0B51FB482B005460C0003D00846CA
:1007400008F0AFFC02E008F0ACFC2030024600905C
:1007500021462846FFF77CFF049B059A04460F4676
:1007600018431143084314D0184610431BD0009877
:1007700040210A1A1846059900F040F805460E4631
:10078000009A05990498FFF763FF084305D00120FC
:1007900004E02046394607B0F0BD0020C1170543EC
:1007A0000E432C43374300990E986305401A790590
:1007B000E40A00220C43FD0A0A3002D5002001465B
:1007C000E9E70105101969410C9C0D9D001969416B
:1007D000FFF7A2FFDFE70000064C0125064E05E00B
:1007E000E36807CC2B430C3C98471034B442F7D352
:1007F000FFF76AFC7CD100009CD1000010B5202AD4
:1008000004DB0846203AD040002110BD0B46D340FF
:10081000D0402024A21A91400843194610BD70B55B
:100820008C180578401C6B075B0F01D10378401CC6
:100830002A1106D10278401C03E006780E70401C95
:10084000491C5B1EF9D12B0705D40023521E0DD481
:100850000B70491CFAE70378401CCB1A921C03E08A
:100860001D780D70491C5B1C521EF9D5A142D8D3CE
:10087000002070BDF0B504460D461F460020002143
:100880009310DB1ED8B2174B1B6801268640B3437A
:10089000144E336033461B683E4686403343114E48
:1008A000336004280CDAA16BC6001F23B3400E4648
:1008B0009E433146C6002B46B3401943A1630FE067
:1008C00008280DDA031FD8B2E16BC6001F23B3401E
:1008D0000E469E433146C6002B46B3401943E163A2
:1008E000F0BD00004084004002460020535898B2FA
:1008F0007047014600200A68D207D20F002A01D0B3
:10090000012000E0002070477047000070B500240F
:10091000002200230568AAB24368144D2A400D78CE
:100920006D004E78F6003543CE78360235432A43C3
:1009300002600F4D2B400D794E79360135438E798B
:1009400036023543CE79360435432B430D78012DDD
:100950000AD10D7AAD10ED1EECB28568ED08ED0000
:100960008560856825438560436070BDF180FFFF29
:1009700080F0F8FF002905D002680123DB031A4349
:10098000026004E002680123DB039A4302607047BF
:1009900001680122114301607047000010B502F0A8
:1009A0001BFF007C022840D102F0A6FF04283CD1A6
:1009B00004F0BCF90078002804D004F0B7F90078FE
:1009C000042832D12548007AC007C00F002829D159
:1009D0000121234806F07CFD00280BDD1F484088DC
:1009E0002049884205DA1D484088401C1B49488040
:1009F00000E000BF02F0F0FEC47C0A214C4317481F
:100A00004088A04219DB1548007A40084000401C8D
:100A10001249087200F034F802F0DEFE072140307F
:100A200001740AE000F02CF807E000F029F80B4808
:100A3000007A4008400009490872084884790A2170
:100A40004C434088A04201DB002403E00348408877
:100A5000201A84B20148048010BD00006A040020FE
:100A6000B8000020FFFF000000B500F009F80348BF
:100A7000007A400840000149087200BD6A04002065
:100A800000200149488070476A040020FEB503F049
:100A900073FF848803F070FF808BA04201DA274641
:100AA00002E003F069FF878B03F066FF408B87420B
:100AB0000ADA03F061FF808BA04201DA204606E0EB
:100AC00003F05AFF808B02E003F056FF408B044690
:100AD000002C71DD3C480078002861D103F04CFF08
:100AE000C78B04F01FF92030807E474364213846CD
:100AF0000097FFF7FFFA80B20190344800888442E3
:100B00002BDB32480088201A86B203F035FFC78BF2
:100B100004F008F9C08E47437D21C900384600978C
:100B2000FFF7E8FA85B208F0EDFE007A6843074661
:100B30006421FFF7DFFA85B2AE420BDD01988642F1
:100B400008DB012D00DA01252048008840191F49E3
:100B5000088033E01D48048030E01C480088001BFA
:100B600086B203F009FFC78B04F0DCF8008F47431F
:100B70007D21C90038460097FFF7BCFA85B2AE4226
:100B80000BDD0198864208DB012D00DA01250F48B4
:100B90000088401B0D49088010E00C4804800DE0DF
:100BA00009480078002806DD07480078401E0649FD
:100BB000087003E000E001E0044804800348008876
:100BC00000F0C6FDFEBD000096010020940100204B
:100BD00070B50546074C29462046FFF78BFA0446B8
:100BE0000548844201D2204600E003480446A0B2F2
:100BF00070BD0000F0490200FFFF000070B505461F
:100C00000A4C29462046FFF775FA0446FF342D3476
:100C100051212046FFF76EFA04460548844201D26E
:100C2000204600E002480446A0B270BD40420F00DA
:100C3000FFFF000005484088401C044948800846E2
:100C4000C08A401C81B20148C18270475C05002007
:100C500010B500200249487606F082FD10BD000064
:100C60004E04002010B551210F48FFF786FA0721E6
:100C70000E48FFF782FA0A220D490E4808F006FED8
:100C80000A220D490D4808F001FE072006490872A6
:100C9000072105484030017401218171FF2002497C
:100CA0000874C877887710BDF60100205D00002029
:100CB000D4010020C8010020EC010020E001002048
:100CC00010B500F001F810BD10B5002009F0F0FFDC
:100CD00010BD000010B506488079962806DB00207C
:100CE0000349887100F05EF800F004F810BD0000C0
:100CF0005D0000201CB503200190002000900F2112
:100D00002348FFF73AFA01A9224808F0C9FD204814
:100D10004078C008C000694609794907490F08436F
:100D20001B49487069461C4808F0BAFD184880788D
:100D3000F821884369460978C900F8221140084320
:100D400013498870FA200870084640783821884393
:100D500020300F49487008468078C008C0000F490D
:100D6000097C4907490F0843094988706946097891
:100D700089000B4A505880470F21054800F0A0F821
:100D8000034988730F22002009F002FE1CBD0000F9
:100D9000B8010020E0010020C80100203602002038
:100DA00090B100001CB50021019100913B480079F1
:100DB000002812D13A480078401CC0B23849087067
:100DC000062801D300200870354800783549085CB2
:100DD000019001A9314808F07AFD334800790028D4
:100DE0005AD13248007800280BDD30480078401E88
:100DF0002E4908700A20009069462B4808F067FDCC
:100E00004AE02B48007B002823D002F049FD284906
:100E1000097B88421DDD27480078002806D0264837
:100E20000078009000202349087031E0012021491A
:100E300008701B484078401CC0B219494870082807
:100E400001D300204870164840781B49085C009088
:100E50001EE01A480078401CC0B2184908700428E7
:100E600004DD00200870082000900EE00C48407857
:100E7000401CC0B20A494870082801D300204870BD
:100E8000074840780C49085C009000200949087028
:100E90006946054808F01BFD1CBD0000E00100206C
:100EA0005A00002080B10000C80100205C00002032
:100EB000F60100206600002086B1000065000020D9
:100EC00010B502460B460020012100BF03E0545C30
:100ED00060404C1CE1B25C1E8C42F8DC10BD00008E
:100EE00070B5044621460A02501A0349FFF702F979
:100EF000C5B2284670BD00007017000070B50446EA
:100F00002546044969430846FF21FFF7F3F885B2F7
:100F1000284670BD7017000070B504462546044988
:100F200069430846FF21FFF7E5F885B2284670BD02
:100F30001F030000F8B505460E4614460027042D91
:100F400006D00D2D1FD0142D33D01D2D7ED168E07D
:100F500020782901604A5158087060782901891861
:100F600049680870A0782901891889680870E078B4
:100F700029018918C9680870280111464018476876
:100F800006F090F883E0E078552807D1217853489F
:100F9000017061784170A178817009E0E078AA2839
:100FA00006D121784D48C17061780171A1784171F5
:100FB0006DE0217849480173007B552803D1052055
:100FC0004749087004E04548007BFF2800D000BF77
:100FD0004248007BA02808D1617840484173A1783D
:100FE0000D304170E178817018E03C48007BA12809
:100FF00008D1617839480D30C170A1780171E1786C
:1010000041710BE03548007BA22807D16178334855
:101010000D308171A178C171E178017206F0AAFBEF
:1010200035E0E0780C2818D22078E17809012D4AC3
:10103000515808706078E17809018918496808708A
:10104000A078E17809018918896800E006E0087055
:10105000E078000111464018476818E0207829011F
:101060001D4A51580870607829018918496808702C
:10107000A0782901891889680870E0782901891801
:10108000C9680870280111464018476800BF00BFB2
:101090001548874203D1017810481F3881550F4801
:1010A000203802F009FB052E08D14B20C0000F4963
:1010B0000880022109482038817104E0002E02D105
:1010C00064200B490870002D04D0082D02D0094877
:1010D00009490880F8BD0000CCB1000016020020CC
:1010E0005C000020ACB30000640000205800002029
:1010F000560000207017000054000020F8B503F0DF
:1011000027FC064600F0C2F902F0EEFB477C08F02F
:10111000F9FB06214156781884B2002E04D002F063
:10112000E3FB807D001984B2FF2C01DA204600E049
:10113000FF200446E0B2FFF7EFFE3949088002F0D5
:10114000D3FB877C08F0DEFB07214156781884B278
:10115000FF2C01DA204600E0FF200446E0B2FFF752
:10116000DBFE2F49488002F0BFFBC77C08F0CAFBBA
:101170000A214156781884B2632C01DA204600E037
:10118000632004463C2060432549088102F0ACFB03
:10119000077D08F0B7FB092141567818204948819E
:1011A000632C01DA204600E0632004461C48408995
:1011B0003C2148431A49488103F0B4FD20300078AF
:1011C0001749887403F0AEFD203040781449C87484
:1011D0000988134A5288891A4A0088180521FEF79F
:1011E00089FF0F49498840180D49888103F0B2FAF8
:1011F000C07D00280DD003F0BFFBC5885021694396
:1012000008466421FEF776FF0546A8B200F0B8FA5A
:1012100005E003F0B1FBC788384600F0B1FAF8BD2D
:1012200048020020F1B584B0049F049F38B20190B9
:10123000884909880198401A00B2019086480088C0
:1012400085494988401A80B203900A210398FEF725
:1012500067FF80B203900198002801DB014600E09F
:101260004142039A914209DB7A490988002905DD48
:101270000499002902DD1E207849087075490498F8
:10128000088075480088098888420CDC7249098802
:10129000714A927C514308460A21FEF72BFF86B221
:1012A0006D4805894EE06C4840886A490988884243
:1012B0000CDB69494988684AD27C514308460A21B7
:1012C000FEF718FF86B2644845893BE06248008813
:1012D000614A5288811A6048807C5F4AD27C801AB9
:1012E0005D4A52885B4B1B889A1A50430090FEF768
:1012F00017FFC0B202905848C17C02980818C0B2CB
:10130000029054490988029A514308460A21FEF77F
:1013100007FF86B2504800884F4A5288811A4E48CB
:1013200000894D4A5289801A4B4A5288494B1B8882
:101330009A1A50430090FEF7DDFE85B24648408978
:10134000401985B203F0EEFCC069014600904148A7
:10135000008803F0E5F804463F490C820846C58141
:10136000407D002871D16721614308466421FEF762
:10137000C1FE87B203F000FB0089B8425EDB35484E
:101380000088864201DA33480688A54201DC601CE9
:1013900085B203F0F1FA0089A04203DD03F0ECFA14
:1013A000008900E02046A8420ADA03F0E5FA008945
:1013B000A04203DD03F0E0FA028902E0224600E0E9
:1013C0002A460392291B039A121B64235A43104690
:1013D000FEF790FEC0B2029020480078002812D19B
:1013E0001D49029888750398001B1A4A1288B21A80
:1013F00050430346291BFEF77DFE87B2154800883F
:10140000381887B223E01448817D0298814201DDBB
:10141000029801E01048807D0F4988750D490988C0
:10142000711A0D4A927D514308466421FEF778FEF9
:1014300087B208480088381887B208E0054807884E
:1014400000200549887502E0FFE702480788384612
:1014500005B0F0BD6A0000204802002068000020AE
:1014600070B504460848007D002808DD0A2002F017
:10147000F8F8251A03F080FA808B281884B22046E9
:1014800002F010FA70BD00004802002015480088E4
:10149000401C80B2134908800A2822DB0020088003
:1014A0001148007D002805DD0F48007D401E0E49D3
:1014B000087500E000BF0C48407D002805DD0A48A3
:1014C000407D401E0849487500E000BF074800788D
:1014D000002805DD05480078401E0449087000E03A
:1014E00000BF70476C000020480200206800002008
:1014F000F8B5074600253E48C65D012006430102B7
:101500003C4801F024FF012008F06CF940213948E3
:1015100001F01DFF012008F065F9FF210131354878
:1015200001F018FF012008F05DF9002420E0F00729
:10153000C00F002804D080212E4801F00BFF03E0EB
:1015400080212C4801F003FF7610012008F04AF9B1
:101550004021284801F0FEFE012008F043F9402117
:10156000244801F0F4FE012008F03CF9601CC4B2EC
:10157000082CDCDB80211F4801F00FFE012008F061
:1015800031F9002418E06D1080211A4801F0D5FED1
:10159000002801D0802005434021164801F0DAFEE2
:1015A000012008F01FF94021124801F0D0FE01206F
:1015B00008F018F9601CC4B2082CE4DB80210D4847
:1015C00001F04DFEFF2101310A4801F0C0FE01206B
:1015D00008F008F98021074801F0B9FE012008F061
:1015E00001F98021034801F0B5FE2846F8BD00004E
:1015F0006CCE00000008044070B504462046FFF79A
:1016000077FF054628110A2148432907090F40188A
:10161000C5B2002C01D0012C07D13C2D02DB0848BB
:10162000055D0BE00648055508E0022C06D1182D93
:1016300002DB0348055D01E001480555284670BD01
:101640009A01002010B5002405E00021204600F09A
:101650000BF8601CC4B20A2CF7DB10BD10B503F008
:10166000D1FB03F089FB10BD70B504460D46072C75
:1016700069D0012C0CD1002D04DD4102324801F06B
:1016800069FE60E0012149022F4801F060FE5AE046
:10169000022C0CD1002D04DDE1012B4801F05AFE93
:1016A00051E0FF210131284801F051FE4BE0032CAD
:1016B0000BD1002D04DD8021234801F04BFE42E0D8
:1016C0008021214801F043FE3DE0042C00D13AE0A6
:1016D000052C0DD1002D05DD012189021A4801F0EC
:1016E00039FE30E001218902174801F030FE2AE07E
:1016F000082C28D0002C09D1002D03DDF02000F0AB
:10170000B7F820E0002000F0B3F81CE0062C0DD163
:10171000002D05DD40210C48803801F018FE12E054
:1017200040210948803801F015FE0CE0092C0AD14F
:10173000002D04DD0421054801F009FE03E0042129
:10174000024801F007FE70BD000904400008044093
:1017500010B504462146074A514308461146FEF794
:10176000C9FC84B20448048022460121034803F0E6
:10177000E5FF10BD701700009801002000680040D0
:1017800070B50446002C01DD204600E000202F4902
:10179000884205DA002C01DD204602E0002000E04E
:1017A0002A48044621462A4A514308462749FEF75B
:1017B000A1FC84B227480078002808D02648007889
:1017C000002804D001210920FFF74EFF03E000218B
:1017D0000920FFF749FF1F480078002805DD1D4854
:1017E0000078401E1B49087000E000BF1B480088BD
:1017F000844223DA1748007800281FD11748008850
:10180000051B6421694308461149FEF773FC054630
:1018100013490D80142D08D928461438050911499B
:101820000D70681D0B49087004E0052D02D30520DA
:1018300008490870074800780B49087021460B4892
:1018400004F0B0F80548048070BD00001F030000DC
:10185000E02E000040010020410100203E01002058
:1018600044010020430100204201002000480040C4
:1018700070B50446064961430846FF21FEF73AFC6D
:1018800085B22A460021034803F058FF70BD0000CE
:10189000701700000064004010B5044672B60020C6
:1018A00000F004FA204600F065F900F085F962B610
:1018B00010BDFFB581B00E4614461F460C200090A7
:1018C0001CE0142C02D31425143C01E0E5B20024E2
:1018D00072B6012000F0EAF93B462A4631460198EB
:1018E00000F098F9009000F067F962B676197F1958
:1018F00000980C2802D0002005B0F0BD002CE0D1EB
:1019000000980C2801D10120F6E70020F4E7000040
:1019100010B50120800300F04BF8012819D1800395
:1019200000F03CF80F2007F0A9FF012189031948B6
:1019300001F003FD00280CD10A2007F09FFF0121D0
:101940008903144801F0F9FC002802D1012007F0B6
:101950005DFF0120000300F02BF8012818D10003DF
:1019600000F01CF80F2007F089FF01210903094846
:1019700001F0E3FC00280BD10A2007F07FFF0121D2
:101980000903044801F0D9FC002801D107F03EFF0B
:1019900010BD0000800804407047000003498969B9
:1019A00002041143014A9161704700000078004031
:1019B0000146044A92690A40002A01D0012000E051
:1019C000002070470078004070B5002200230021FD
:1019D0003F498479002C73D00C4624680588AC43B9
:1019E0000D462C600C4664680588AC430D466C605F
:1019F000847861180C6805882C430C60344CA4680A
:101A00000588AC43324DAC602C46E4680588AC4395
:101A10002F4DEC602C4624690588AC432C4D2C617D
:101A2000C4782C2C06DB2C46A46805882C43284D52
:101A3000AC6005E0264CA4680588AC43244DAC603E
:101A4000C4780F2C02D0C4783F2C0CD1204CE46811
:101A500005882C431E4DEC602C46246905882C43D8
:101A60001B4D2C6108E01A49C478E406E40E6118A5
:101A70000C6805882C430C6000221DE00124944072
:101A8000234604881C409C4214D1052A12DA104CCB
:101A9000646A96000F25B540AC430D4D6C62047925
:101AA0004579AD002C439500AC40094D6D6A2C433F
:101AB000074D6C62541CE2B2102ADFDB06E0FFE740
:101AC000847861180C680588AC430C6070BD000018
:101AD0000078004010B5072914DD134A126A0B463E
:101AE000083B9C000F23A3409A430F4B1A621A46EF
:101AF000126A0B46083B9C000346A3401A430A4B5C
:101B00001A620FE0084AD2698C000F23A3409A435F
:101B1000054BDA611A46D2698C000346A3401A438A
:101B2000014BDA6110BD00000078004005490868EB
:101B30000968054A1143034A1160044901431160D1
:101B400070470000004804400008A55A0000A55A4C
:101B50000349C96802041143014AD160704700007B
:101B600000480440002002498862C8620863704748
:101B70000048044030B504460C2500F031F9054614
:101B80000C2D11D10021C943084600F00BF908487B
:101B9000446108480649086100F022F90546002022
:101BA00003490861FFF7DEFFFFF7C0FF284630BD9D
:101BB000004804400001B44B044800690121890336
:101BC00088434018014908617047000000480440FC
:101BD00070B504460D460C2600F002F906460C2EA0
:101BE00010D10021C943084600F0DCF80748084935
:101BF0000861258000F0F4F80646002004490861D9
:101C0000FFF7B0FFFFF792FF304670BD00034BB403
:101C100000480440FEB504460D4616461F460C20FB
:101C20000290002001900090FB20FFF791FFA0029E
:101C3000144940184019009010E00198395A009852
:101C4000FFF7C6FF029002980C2806D10098801C6E
:101C500000900198801C019000E002E00198B042E1
:101C6000EBD300BFA002074940184019009002982A
:101C70000C2805D13A463146009800F09DF80290B4
:101C80000298FEBD0000FC0F70B50446002007E07E
:101C9000A502054EAD196D182D5C1D705B1C401C16
:101CA0009042F5D370BD00000000FC0F1749096990
:101CB0000904C90F002907D1144909690122D20377
:101CC00091438918114A116110490969C904C90F62
:101CD000002907D10D49096901221203914389188E
:101CE0000A4A1161094909694904C90F00290CD040
:101CF0000749064A9160002802D10649916004E034
:101D0000012802D10449014A91607047004804400B
:101D10005713DF9BC3C3C3C3B4B4B4B400B50C231F
:101D20001F48C0680121C9030840884201D101232E
:101D300033E01B48C06810210840002801D005236B
:101D40002BE01748C06808210840002801D006236E
:101D500023E01348C06820210840002801D0042354
:101D60001BE00F48C06840210840002801D0032331
:101D700013E00B48C06880210840002801D00223EE
:101D80000BE00748C06802210840002801D0072363
:101D900003E00C230120FFF7DBFE184600BD000026
:101DA00000480440034A9062D1620122014B1A6349
:101DB0007047000000480440F0B503460C460C2074
:101DC000002100251D4607E02E78575CBE4201D059
:101DD0000B20F0BD6D1C491CA142F5D300BFF8E7F4
:101DE00008B50C200090FFF799FF009002E0FFF784
:101DF00095FF0090684600780128F8D06846007882
:101E000008BD000010B50E484078002802D0012817
:101E100012D108E00A4909780C225143094A89186D
:101E20004868804709E0064909780C225143054A71
:101E300089188868804700E000BF00BF10BD00001F
:101E4000A401002004D1000010B53048008800280B
:101E50003BD02E480088401E2C490880002431E0E9
:101E600002F08AFD018906206043294A80184088D3
:101E70000201101A814223DA02F07EFD0189062058
:101E80006043234A801880880201101A814217DDBE
:101E9000062060431E49085C1E490978884205D126
:101EA0001D480078401C1C49087008E0062060436B
:101EB0001749085C1749087000201749087003E0AB
:101EC000601CC4B2022CCBD300BF13480078052895
:101ED00002DB00200D49088001F006FD007F01288B
:101EE00004D102F049FD0021C1700EE001F0FCFCBC
:101EF000007F022804D102F03FFD0121C17004E0FF
:101F000002F03AFD03490978C17010BDA800002015
:101F100060C00000AC000020AA0000200146142987
:101F20000CDA15480078FF2804DA13480078401CC2
:101F3000114A10700020104A50700BE00E48407893
:101F4000FF2804DA0C484078401C0B4A50700020EF
:101F5000094A107008480078062802DB0120074A69
:101F6000107005484078192802DB0020034A1070E1
:101F700002480078704700006E00002075000020C5
:101F8000F8B506F0FBF801F027FC067B304601F0BF
:101F900031FC04466078122802D1A07810280BD0BA
:101FA00060780F2802D1A078102805D0607810281A
:101FB0001ED1A0780C281BD102F0B4FE2030C67FC1
:101FC000304605F00DFD01F08FFC067C3046FEF733
:101FD00095FF074602F0D0FC878001F085FC467C27
:101FE0003046FEF799FF074602F0C6FCC780B7E10E
:101FF0006078052802D1A078122805D060780528DD
:1020000032D1A07811282FD102F08CFE2030C67F6B
:10201000304605F0E5FC01F067FC067C01F064FC4D
:10202000407D3518FF2D01DA284600E0FF200546E7
:10203000E8B2FEF763FF064602F09EFC868001F0E0
:1020400053FC467C01F050FC807D3518FF2D01DAF1
:10205000284600E0FF200546E8B2FEF75DFF064691
:1020600002F08AFCC6807BE16078122802D1A07859
:1020700011280BD060780F2802D1A078112805D044
:10208000607811281ED1A0780C281BD102F04AFEDE
:102090002030C67F304605F0A3FC01F025FC867B8E
:1020A0003046FEF72BFF074602F066FC878001F002
:1020B0001BFC867C3046FEF72FFF074602F05CFCD7
:1020C000C7804DE160780D281ED1A07810281BD163
:1020D00002F028FE2030C67F304605F081FC01F07A
:1020E00003FCC67B3046FEF709FF074602F044FCBE
:1020F000878002F041FC8688304601F0D3FB07461A
:1021000002F03AFCC7802BE160780F281ED1A0783E
:102110000A281BD102F006FE2030C67F304605F0AB
:102120005FFC01F0E1FBC67B3046FEF7E7FE0746A9
:1021300002F022FC878002F01FFC8688304601F006
:10214000B1FB074602F018FCC78009E1607811284E
:1021500002D06078102868D1A078012808D0A07833
:10216000022805D0A078032802D0A07804285CD1EA
:10217000A078012801D100250DE0A078022801D126
:10218000012508E0A078032801D1022503E0A0780A
:10219000042800D1032502F0C5FD2030C07FA842ED
:1021A00001DD284603E002F0BDFD2030C07F05467A
:1021B000E8B205F015FC6078102810D101F094FB0E
:1021C000067C02F0AFFD0746143702F0C3FA007D2B
:1021D0004000381801214156701885B20DE001F019
:1021E00083FB867B02F09EFD0746143702F0B2FAAD
:1021F000007D40003856301885B2FF2D01DDFF20EC
:1022000000E028460546E8B2FEF778FE064602F0F2
:10221000B3FB868002F0B0FB8688304601F042FBBB
:10222000074602F0A9FBC7809AE060780D281AD112
:10223000A0780D2817D101F0CFFA807B954908705E
:1022400002F070FD2030C07F92490978884202DD9B
:102250009048007803E002F065FD2030C07F06461C
:1022600005F0BEFB7CE060780F2829D1A0780F280C
:1022700026D102F057FD2030C07F86490978884278
:1022800002DD8448007803E002F04CFD2030C07F7E
:10229000064605F0A5FB01F09FFA867B3046FEF767
:1022A0003BFE074602F068FBC78001F095FA867B8B
:1022B000304601F0C7F9074602F05EFB87804FE029
:1022C0006078122831D1A07812282ED102F02AFD90
:1022D0002030C07F6F490978884202DD6D48007860
:1022E00003E002F01FFD2030C07F064605F078FBBA
:1022F00001F072FA807B092803DA01F06DFA807B25
:1023000000E009200546E8B201F0C3F9064602F0F4
:1023100033FB868002F030FB8688304601F0C2FA3B
:10232000074602F029FBC7801AE002F0FBFC2030D0
:10233000867F304605F054FB01F0D6FA867B3046A6
:10234000FEF7DCFD074602F017FB878001F0CCFAB0
:10235000867C3046FEF7E0FD074602F00DFBC780A5
:1023600002F00AFB40784009012802D0042005F061
:102370002DFB05F065FA04F061FC02F0EBF9C07D7D
:10238000002811D002F0E6F9068A02F0F5FA8088FA
:10239000864203DD02F0DEF9068A02E002F0ECFA82
:1023A000868802F0E9FA868002F0E6FA4078400773
:1023B000C00F00280FD138480088401C80B2364931
:1023C000088032280ADB02F0D7FA01218172052049
:1023D00005F0FCFA02E000202F49088002F0CCFA58
:1023E000408A2E49884207DB02F0C6FA0646363696
:1023F000C08E401C308003E002F0BEFA0021C1868E
:1024000002F0BAFAC08EFF212D31884206DD02F0BB
:10241000B3FA05218172052005F0D8FA02F0ACFA72
:102420000078C007C00F002802DD00201A4988800C
:1024300019488088401C80B21749888064280ADBCC
:1024400002F09AFA0021C18002F096FA022181720C
:10245000052005F0BBFA08F0C7F900900098FF28A6
:1024600006D002F089FA00998172052005F0AEFAD3
:1024700002F082FA40788007C00F002806D002F0F0
:102480007BFA00784007C00F002802D1052005F034
:102490009DFAF8BDB5010020A601002052030000FE
:1024A00010B508210448FDF768FE012005F088FA00
:1024B00005F0ACF910BD0000A601002010B502F037
:1024C0005BFA40784007C00F002804D002F054FAAD
:1024D0000021C18005E001F083F9848902F04CFA03
:1024E000C48010BD10B508210848FDF746FE02F073
:1024F00043FA0021818002F03FFA0021817006201A
:10250000FFF7B2F8012005F05BFA10BDA60100202C
:1025100010B502F031FA0021818002F02DFA00217D
:10252000817001F05DF9848902F026FAC48005F01B
:102530000DFA02F021FA807A002803D0062005F077
:1025400045FA02E0002005F041FA10BD10B508215F
:102550000348FDF712FE012005F032FA10BD00001D
:10256000A601002010B502F007FA0021818002F0D8
:1025700003FA002181700620FFF776F802F0FCF9DB
:10258000008E00280DD002F0F7F904463034008E9A
:10259000401E208001F024F9848902F0EDF9C48006
:1025A00003E002F0E9F90021C18002F0E5F940788A
:1025B0008007C00F002808D002F0B8FB4078002840
:1025C00003D102F0D9F9FF21C17202F0D5F94078A8
:1025D0008007C00F002803D102F0CEF9FF218172DD
:1025E00002F0CAF9807AFF2807D102F0C5F9C07A53
:1025F000FF2802D1002005F0E9F902F0BDF940788A
:102600004007C00F002811D002F0B6F9807A0628E2
:102610000CD002F0B1F9C07A062807D002F0ACF96C
:1026200004463234408E401C208003E002F0A4F9BE
:102630000021418602F0A0F9408EFF21F531884249
:1026400006DB02F099F900218172092005F0BEF93C
:1026500010BD000010B508210B48FDF78EFD02F0FB
:102660008BF90021818002F087F90021817006201A
:10267000FEF7FAFF012005F0A3F902F07DF9847A54
:1026800002F07AF9C47210BDA601002010B502F064
:1026900073F90021818002F06FF90021817001F04F
:1026A0009FF8848902F068F9C48001F02BF9407C1E
:1026B000C007C00F00280CD101F024F9007C0228CB
:1026C00007D002F059F9FF21817202F055F9FF217C
:1026D000C17202F051F9807AFF2802D1052005F07D
:1026E00075F902F049F940784007C00F002811D071
:1026F00002F042F9807A062804D102F03DF9C07A4E
:10270000062807D002F038F904463234408E401CC7
:10271000208003E002F030F90021418602F02CF91C
:10272000408EFF21F531884206DB02F025F90021B9
:102730008172092005F04AF910BD000010B508218A
:102740000348FDF71AFD012005F03AF910BD00001D
:10275000A601002010B502F00FF90021818002F0DF
:102760000BF9002181700620FEF77EFF02F004F9CC
:10277000008E00280DD002F0FFF804463034008EA1
:10278000401E208001F02CF8848902F0F5F8C48006
:1027900003E002F0F1F80021C18002F0EDF80078CA
:1027A0004007C00F002812D002F0E6F840788007FA
:1027B000C00F00280BD01D480088401C80B21B4968
:1027C0000880012806DB012005F000F902E0002066
:1027D0001649088002F0D0F840784007C00F002862
:1027E00011D002F0C9F8807A06280CD002F0C4F8A3
:1027F000C07A062807D002F0BFF804463234408E73
:10280000401C208003E002F0B7F80021418602F06E
:10281000B3F8408EFF21F531884206DB02F0ACF8B8
:1028200000218172092005F0D1F810BDA601002019
:1028300010B5012005F0C4F808210748FDF79DFCFC
:1028400002F09AF80021818002F096F80021817050
:102850000620FEF709FF10BDA6010020F8B501F023
:1028600043F8C67B01F044F8807B002804D102F0D5
:1028700083F8007B002801D1701DC6B2B0480088E3
:10288000401C80B2AE490880282818DC01210620AF
:10289000FEF7EAFE02F070F800218170FF20FEF7DB
:1028A0002DFB054602F068F885803046FEF726FBD2
:1028B000A449088002F060F800218186A5E0A048C4
:1028C0000088322818DC01210620FEF7CDFE02F038
:1028D00053F8002181703046FEF710FB054602F0E8
:1028E0004BF8858002F048F880889649088002F00D
:1028F00043F80021818688E0914800889249884207
:102900002ADB02F039F8007B002807DD02F034F8FA
:1029100005460C35077B781E287001E002F02CF884
:1029200000208749088001210620FEF79DFE02F065
:1029300023F800218170FF20FEF7E0FA054602F03F
:102940001BF885803046FEF7D9FA7E49088002F0F0
:1029500013F80021818658E079480088192149013F
:1029600088421FDB02F008F8007B002806D102F045
:1029700003F801218172052005F028F801F0FCFF21
:102980000021818001F0F8FF002181700620FEF710
:102990006BFE00F0A9FF057C2846FEF7AFFA6949F7
:1029A000088032E001210620FEF75EFE02F0BAF94F
:1029B000054602F0B7F92030807F2D5C01F0DCFF86
:1029C00085703046FEF79AFA054601F0D5FF8580FE
:1029D0005E4800781E2813DD00205C490870002145
:1029E0000620FEF741FE01F0C7FF407840090128AC
:1029F00003D1072004F0EAFF02E0042004F0E6FF20
:102A000001F0BAFF80884F4908804E48008804F0E2
:102A100087FF01F0B1FF40784007C00F002812DDAA
:102A20004A480078FF2805DA48480078401C4749A2
:102A3000087000E000BF01F09FFF05463435808E2E
:102A4000401C288006E000204049087001F094FFF7
:102A50000021818601F090FF808E642806DB01F062
:102A60008BFF06218172052004F0B0FF01F084FF86
:102A700000784007C00F002806D001F07DFF4078A5
:102A80008007C00F002802D1052004F09FFF01F04D
:102A900073FF00788007C00F002806D102F00CF801
:102AA000009068460078002806D001F065FF0321F9
:102AB0008172052004F08AFF01F05EFF0078C007F4
:102AC000C00F002802DD00201D4988801C48808836
:102AD000401C80B21A49888064280ADB01F04CFF50
:102AE0000021C18001F048FF02218172052004F01D
:102AF0006DFF01F041FF058900F072FEC08985423B
:102B000002DA00200E4948800D484088401C80B2FF
:102B10000B494880322806DB01F02EFF0821817224
:102B2000052004F053FF07F05FFE0446FF2C05D09C
:102B300001F022FF8472052004F048FFF8BD000078
:102B4000A6010020AE0100204C040000B0010020CE
:102B500010B5012004F034FF08210448FDF70DFBF7
:102B600001F00AFF0121017310BD0000A601002041
:102B700070B5002505F014FF05F070FE0546002D28
:102B800006DD01F0F9FE03218172062004F01EFF2C
:102B900001F0F2FE00784007C00F002806D001F0D7
:102BA000EBFE40788007C00F002802D1002004F01F
:102BB0000DFF01F0E1FE00788007C00F002806D06D
:102BC00001F0DAFE03218172062004F0FFFE07F017
:102BD0000BFE0446FF2C05D001F0CEFE84720620C9
:102BE00004F0F4FE00F088FE012804D105F0FAFD9F
:102BF000022004F0EBFE70BD10B5012004F0E0FEF1
:102C000008210848FDF7B9FA01F0B6FE0021418617
:102C100001F0B2FE0021818601F0AEFE0021C186E6
:102C200010BD0000A6010020F8B50020009000F0C3
:102C30005BFE477C3846FEF76FF90646FEF7F2FA70
:102C4000074601F099FEC78001F096FE0078C007A4
:102C5000C00F002847DD01F08FFE008964387F49EE
:102C60000988884202DA7D48068804E001F084FE83
:102C700000890646643E01F07FFE0089643086428A
:102C80000FDA01F079FE00896438744909888842B6
:102C900002DA7248008808E001F06EFE00896438AC
:102CA00003E001F069FE0089643084B26B4800885B
:102CB000A04203D16A480088322803DC0020694919
:102CC00008700AE067480078FF2805DA6548007850
:102CD000401C6449087000E000BF01F04DFE00890F
:102CE0005E49088004E000205C4908805D49087066
:102CF0005B480088401C80B259490880192149016D
:102D0000884221DD01F038FE40784007C00F0028DE
:102D100055D101F031FE0078C007C00F00280BD15B
:102D200001F02AFE0221817201F026FE0021C180FD
:102D3000052004F04BFE42E001F01EFE08218172E6
:102D4000052004F043FE3AE045480088962836DB2B
:102D500000F046FDC68900F043FD008A301A84B2B7
:102D60003F48008896384B21C900884203DA3C4826
:102D70000088963801E04B20C00080B20090009996
:102D8000614308464B21C900FDF7B4F984B200F055
:102D900027FD008A001984B201F0EEFD0078C0071B
:102DA000C00F00280BDD2F480078322807DD01F026
:102DB000E3FD0089A04202DA032004F007FE01F0DF
:102DC000DBFD00784007C00F002806D001F0D4FDDD
:102DD00040788007C00F002802D1002004F0F6FDE3
:102DE00001F0CAFD40784007C00F002807D001F06D
:102DF000C3FD06463436808E401C308003E001F06F
:102E0000BBFD0021818601F0B7FD808E642806DBC2
:102E100001F0B2FD06218172062004F0D7FD01F019
:102E2000ABFD00788007C00F002803D105F016FD28
:102E3000002806D001F0A0FD03218172052004F0D6
:102E4000C5FD07F0D1FC0546FF2D05D001F094FD2E
:102E50008572052004F0BAFDF8BD0000B201002023
:102E6000A6010020B401002010B5012004F0A8FD47
:102E700008210248FDF781F910BD0000A6010020DD
:102E8000F8B505F003FA01F077FD8688304604F0C6
:102E900047FD01F05FFCC07D002811D001F06CFD02
:102EA000868801F057FC008A864203DD01F064FD4C
:102EB000868802E001F04EFC068A01F05DFD868006
:102EC00001F05AFD40784007C00F002816D1754820
:102ED0000088FF2805DA73480088401C7149088083
:102EE00000E000BF6F48008805280ADB01F044FDC0
:102EF00001218172052004F069FD02E0002069498A
:102F0000088001F039FD40788007C00F002806D006
:102F100001F032FD00784007C00F002803D10520E2
:102F200004F054FD08E001F027FD40784009012835
:102F300002D1072004F04AFD01F01EFD0078800751
:102F4000C00F002806D101F0B7FD00906846007858
:102F5000002808D001F010FD03218172052004F043
:102F600035FD04F0B1F801F007FD0078C007C00F8F
:102F7000002802D000204B4948804A484088401C25
:102F800080B24849488032280ADB01F0F5FC022172
:102F9000817201F0F1FC0021C180052004F016FDD2
:102FA00001F0EAFC068900F01BFCC089864202DAC7
:102FB00000203C4988803B488088401C80B23949C9
:102FC0008880322806DB01F0D7FC082181720520B9
:102FD00004F0FCFC3348C088401C80B23149C880F2
:102FE000642816DB0020C88001F0C6FC06462E3699
:102FF000C08D401C308001F0BFFCC08D2A49884242
:1030000003DA01F0B9FCC68D00E0274E01F0B4FCF4
:10301000C68500F069FCC07D012801D1234D00E088
:10302000234D01F0A9FCC08DA84206DD01F0A4FCEF
:1030300010218172052004F0C9FC01F09DFC408A3A
:103040001C49884207DB01F097FC06463636C08EE5
:10305000401C308003E001F08FFC0021C18601F0AC
:103060008BFCC08EFF212D31884206DD01F084FCEF
:1030700005218172052004F0A9FC07F0B5FB044688
:10308000FF2C05D001F078FC8472052004F09EFC32
:1030900000F032FC042803D001F06EFC0021C18551
:1030A000F8BD0000A6010020C43B0000B80B0000E2
:1030B000FFFF00005203000010B508210748FDF78C
:1030C0005CF801F059FC0021C18505F037F904F0E6
:1030D0009DFB012004F074FC10BD0000A60100203F
:1030E00010B50D480078401CC0B20B4908700A2882
:1030F00000DA10BD00200849087005F05FFE00F0FE
:10310000F1F905F0A5FE00F031F902F093FC04F0AE
:10311000CDFB00BFEDE70000E900002010B5142151
:103120000648FDF72AF800F0E3FB00680349086051
:1031300000F0DEFB40680149486010BD74040020C7
:103140000246501803B2012B01DA012000E01846B4
:10315000034698B2704702460023DB43981A814227
:1031600001D8501800E0081A70477CB505460C4697
:103170000121042003F004FE00940021684601713F
:1031800041718171C1716946284600F024F801221D
:103190002146284600F0A1F87CBD7CB505460C46CA
:1031A0000121042003F0ECFD009400216846017128
:1031B000417181710121C1716946284600F00BF807
:1031C000009881B2284600F0C5F801222146284621
:1031D00000F083F87CBDF0B50A46002100230024EE
:1031E00038E001258D402B4615681D402C469C4239
:1031F0002FD1056801268E40B54305600568167914
:103200008E40354305601579012D16D1C5694F00F3
:103210000126BE40B543C56155794E00B540C6692B
:103220003543C561856901268E40B5438561856951
:1032300096798E40B6B235438561056A4F00012606
:10324000BE40B5430562D5794E00B540066A3543A8
:103250000562491C1568CD40002DC2D1F0BD7CB57A
:1032600005460C460121042003F08AFD009401214B
:1032700068460171002141718171C171694628461A
:10328000FFF7A9FF009881B2284600F060F80122FC
:103290002146284600F021F87CBD7CB505460C4649
:1032A0000121042003F06CFD0094012168460171A6
:1032B00000214171012181710021C17169462846B7
:1032C000FFF789FF009881B2284600F043F80122F9
:1032D0002146284600F001F87CBDF0B50B460021E0
:1032E000002425E001258D40ACB21D462540A542B5
:1032F0001CD107290EDDC56A4E07F70E0F26BE400A
:10330000B543C562C56A4E07F60E1746B7403D4342
:10331000C5620BE0856A8F000F26BE40B54385620B
:10332000856A8E001746B7403D4385624D1CE9B261
:103330001D460D41002DD5D1F0BD02460020536839
:103340000B40002B01D0012000E0002070470A0450
:10335000C2607047C160704703490160002101717C
:1033600041718171C1717047FFFF000010B500F01D
:1033700033FA40308079002804D000F0B5FA407E5E
:10338000022808DB5548407C4008400053494874F7
:1033900000200874A0E000F01FFA8079002811D105
:1033A00007204E49087400F017FA0021417600F01A
:1033B00013FA002101764948407C40084000474903
:1033C000487489E000F008FA807E012811D10320BA
:1033D0004249087400F000FA0021417600F0FCF93F
:1033E000002101763D48407C400840003B4948743C
:1033F00072E03A48007C072803D03848007C032854
:1034000007D10020354908740846407C4008400038
:1034100048743248007C00280FD100F065FA407EE5
:1034200080002F494018847800F0D6F9007E84424D
:1034300012DC0220294908740EE000F055FA407EA3
:10344000800027494018C47800F0C6F9007E844205
:1034500002DB0020214908742048407CC007C00FCF
:10346000002812D100F040FA407E80001C490C5C1C
:1034700000F0B2F9407E844219DC1848407C4008D4
:103480004000401C1549487411E000F02DFA407EC0
:10349000800013494018447800F09EF9407E844231
:1034A00005DB0E48407C400840000C4948740B483E
:1034B000407CC007C00F002803D10848007C0228C8
:1034C0000AD100F019FA082806D000F015FA0628EB
:1034D00002D0082004F07AFA10BD00007404002025
:1034E000A4C5000010B510480078002805DD0E487E
:1034F0000078401E0C49087000E000BF0A480078C0
:10350000002810D10A200849087000F0F5F90428B5
:1035100009D101F0CDFA848D214604480068FFF7F7
:103520001AFE0249086010BDD0000020D40000201F
:1035300070B501F00DFA054600F0D6F9047C06F0EE
:10354000E1F90B214156081984B2002D04D000F096
:10355000CBF9407D001984B2FF2C01DA204600E04F
:10356000FF200446E0B270BD10B500F0BDF9847BC9
:10357000FF2C01DA204600E0FF200446E0B210BD37
:10358000014800887047000098010020F8B5074600
:103590000D4601F0C7FB2030C07FA84201DD284660
:1035A00003E001F0BFFB2030C07F054601F0BAFB0D
:1035B000001DA9004018468801F0B4FB001DA900B9
:1035C000405A301A86B21E49498E714308467D2101
:1035D000C900FCF78FFD86B201F0A4FB001DA90015
:1035E000445A1749498E614308467D21C900FCF7BA
:1035F00081FD84B2A7421ADD381B84B2002C01DDA4
:10360000204600E00020B04205DA002C01DD204613
:1036100002E0002000E03046044601F0ADF9C08B26
:10362000604331460090FCF765FD84B200E0002461
:1036300001F0A2F9808B001984B22046F8BD000089
:103640009E020020F8B504462046FDF765FC0746BB
:1036500001F000F80546284600F003F8064630461B
:10366000F8BDF8B50446642C01DA204600E0642079
:10367000044601F081F9C08B604306466421FCF7E3
:1036800039FD074601F078F9808B381885B2284655
:10369000F8BDF8B5044601F06FF9C08B60430646EB
:1036A0000921FCF727FD074601F066F9808B3818E1
:1036B00085B22846F8BD0000F8B5044600F0F0F8E1
:1036C0000646207BB04201DB00202073207B0028CF
:1036D0004AD0207B3D490870607BAA283BD1207BE3
:1036E000C0003B49085C4007400F002833D0A07B56
:1036F000217BC900364A891849680870207BC000C0
:103700001146401840780F2805D1207BC000401892
:1037100080780A280CD0207BC0002D4940184078C2
:10372000162818D1207BC00040188078052812D1B7
:1037300005F058F801F0F6FA40308079C100081A17
:103740002449451800F0D0F807460E3707222946CD
:103750003846FCF7F9FC01F00FF9451C4078E021F0
:1037600088432030287030E018480078002810D0B6
:1037700000201649087001F0FFF8451C4078E02150
:103780008843287000F0B0F800212030817007F0E5
:1037900099FB00F021F8C07B002807D101F0ECF87C
:1037A000451C4078E021884328700EE001F0E4F8E1
:1037B000451C00F011F8C07B401C4001E02108408E
:1037C00007462878884338432870F8BDAB000020AE
:1037D00010BF000035C0000000487047F60100200F
:1037E00000487047480200200148008870470000E8
:1037F0003E0100200146C800014A801870470000C1
:1038000010BF000070B501F0B7F8068A01F0B4F8F7
:10381000408A86421CDB01F0AFF8068A01F0ACF862
:10382000408A301A84B20A212046FCF779FC84B21F
:10383000102C00DD102460012018604315496143FD
:10384000401885B214492846FCF76AFC84B216E099
:1038500001F092F8468A01F08FF8008A301A84B29B
:103860000A212046FCF75CFC84B2102C00DD1024F9
:10387000A10160186421FCF753FC0546ECB2022C50
:1038800000DA0224082C00DD08240A206043C0B2BC
:1038900070BD00006B040000DC05000016207047BE
:1038A0002220704770B5044600250026204600F00F
:1038B000A9FE054607490988064A5288891A6943BC
:1038C00008466421FCF716FC02494988401886B274
:1038D000304670BD480200200249887E00228A7668
:1038E00070470000BE020020004870474C060020D0
:1038F00000487047700600200148007870470000BB
:10390000A40100200048704774040020F1B586B07F
:1039100001F008FA071D00F01DFF407D8000385AB5
:1039200003904149898E039A514308467D21C9007D
:10393000FCF7E0FB80B2039001F0F4F9071D00F002
:1039400009FF407D80003818458801F0EBF9071D1C
:1039500000F000FF407D8000385A281A85B23249B5
:10396000898E694308467D21C900FCF7C3FB85B2F7
:1039700009212846FCF7D4FB85B201244EE001F072
:10398000D1F922306100425E059201F0CBF922307C
:10399000611E4900465E284660430399401880B284
:1039A00002907D23DB00059AD21802995143084604
:1039B0001946FCF79FFB80B2029002990698884254
:1039C00024DA601E68430399401880B201907D227A
:1039D000D200B2180199514308467D21C900FCF775
:1039E00089FB80B20190019B069AD21A059B9B1B12
:1039F0005A431046019B029AD11AFCF791FB00B280
:103A000004900498801900B2049009E001F08AF94A
:103A100022306100405E0490601CC4B20A2CAEDB10
:103A200000BF049807B0F0BD9E02002070B50446A8
:103A300000F0A2FF807B604306460448864200D91E
:103A400000E0304685B2284670BD0000FFFF000050
:103A5000004870479400002070B5002400252048DD
:103A6000007820490871FFF73FFF407B062148435B
:103A70001D49097889001D4A5158401819490860A4
:103A8000FFF732FF807F012800D302E0FFF72CFF11
:103A9000857F002419E00C206843154940184068D0
:103AA000E10040580F49096888420CD10C20684356
:103AB0000F4940184068E100401800790949097928
:103AC000884200D108E0601CC4B20C206843084959
:103AD00040184078A042DEDC00BF0648847170BD0B
:103AE0009C000020940000209D00002058B8000099
:103AF000A0B900001404002010B51421FE48FCF702
:103B00003CFB0321FC481930FCF737FB2D21FA4818
:103B1000801EC17619211B3041700F2181707D20DC
:103B2000C000F5492239C88608870021F248801E66
:103B3000817620308079002861D1F048EE49223921
:103B4000C8610021EC48801E81770321C177812064
:103B5000E949223908708320487087208870E84935
:103B6000E5482238C180E748E34922398880E649A0
:103B7000E14822384181E5490181E549C181E549B2
:103B800081810020DC49223948846221DA482238C8
:103B900081848421C1848B2101857A2141856E2114
:103BA00081855B21C1854521018630214186002127
:103BB00081860020D049223908750021CE4822385C
:103BC00041758175C175017641760F2140300170D4
:103BD0000D214170022181700C21C17008210171F9
:103BE0000421417123212038C17616211B304170F8
:103BF0000D2181700A211B3801704170A3E2BE487B
:103C00001E308079012862D1C348BB492239C8617E
:103C10000021B948801E81770321C1778120B649F0
:103C2000223908708320487087208870B449B248D0
:103C30002238C180B348B04922398880B249AE48A1
:103C400022384181B1490181B149C181B1498181A4
:103C50000020A949223948846221A748223881845A
:103C60008421C1848B2101857A2141856E21818542
:103C70005B21C18545210186302141860021818655
:103C800000209D492239087500219B482238417542
:103C90008175C175017641760F21403001700D218B
:103CA00041700221817023212038C17616211B30FA
:103CB00041700D2181700C21401DC17008210171DE
:103CC000042141710A212038017041703BE28A4889
:103CD0001E308079022872D1904887492239C86104
:103CE00000218548801E81770321C1770320824906
:103CF000223908700B204870052088700F20C8708A
:103D000087497D482238C18086487B49223988808E
:103D10008549794822384181844901818449C1819A
:103D20008449818184494182844901820020724909
:103D30002239488435217048223881844921C18440
:103D400073210185742141856D2181855221C185B1
:103D50003C2101862121418600218186002066497F
:103D60002239087500216448223841758175C17572
:103D7000017641768176C1760F21403001700D21A8
:103D800041700221817037212038C17623211B30F8
:103D90004170192181700C21401DC17008210171F1
:103DA000042141710A212038017041707D20C0003A
:103DB00051492239C88664200887C4E1FFE74E488C
:103DC0001E308079032872D15D484B492239C86181
:103DD00000214948801E81770321C177032046498D
:103DE000223908700B204870052088700F20C87099
:103DF0004B4941482238C1804A483F49223988808E
:103E000049493D4822384181484901814849C18199
:103E10004849818148494182484901820020364908
:103E20002239488435213448223881844921C1848B
:103E300073210185742141856D2181855221C185C0
:103E40003C210186212141860021818600202A49CA
:103E50002239087500212848223841758175C175BD
:103E6000017641768176C1760F21403001700D21B7
:103E700041700221817037212038C17623211B3007
:103E80004170192181700C21401DC1700821017100
:103E9000042141710A212038017041707D20C00049
:103EA00015492239C886642008874CE1FFE712488B
:103EB0001E30807904287DD122480F492239C861FB
:103EC00000210D48801E81770321C17781200A4996
:103ED0002239087083204870872088700D496A3124
:103EE00005482238C1800F4896300349223988801E
:103EF00015490148223829E0F603002090B8000057
:103F00009A280000ED100000A2510000DA20000005
:103F10007B760000842F0000BCB80000E8B80000E9
:103F20000D2500001C140000D742000047220000AD
:103F3000A5740000183A0000E8890000FF3D000069
:103F400018B9000044B90000DC60000041817E49DE
:103F500001817E49C1817E49818100207D4948845B
:103F60003C217C4881846E21C18482210185782195
:103F70004185642181855A21C185462101863221EE
:103F80004186002181860020724908750021714810
:103F900041758175C175017641760F214030017000
:103FA0000D214170022181702D212038C176192107
:103FB0001B3000E00EE041700F2181700C21401D8C
:103FC000C17008210171042141710A21203801705A
:103FD0004170B8E05F4840308079052859D15E488B
:103FE0005C49C86100215B48203081770221C1779C
:103FF000812058490870832048708720887057496D
:104000005448C18056485349888056495148418197
:104010004D4901814D49C1814D49818100204D4962
:1040200048843C214B4881846E21C18482210185D2
:1040300078214185642181855A21C18546210186E7
:1040400032214186002181860020424908750021E5
:10405000404841758175C175017641760F21403028
:1040600001700D214170022181702D212038C1760F
:1040700019211B3041700F2181700C21401DC1702E
:1040800008210171042141710A2120380170417019
:1040900059E035482F49C86100212E4820308177EA
:1040A0000221C17781202B49087083204870872026
:1040B00088702549EB312748C1802320C00125495C
:1040C00088802A4923484181294901812949C181A0
:1040D0002949818100201F49488446211D48818447
:1040E0008221C1848C2101854185782181855021DF
:1040F000C18546210186322141860021818600202A
:10410000144908750021134841758175C175017600
:1041100041760F21403001700D21417002218170E4
:104120002D212038C17619211B3041700F2181705B
:104130000C21401DC17008210171042141710A2127
:1041400020380170417010BD052800000B9E000052
:104150001B400000D403002070B90000EE2F0000C7
:10416000B2140000DC600000E8B80000204E00003F
:10417000F01E000011860000C2330000F8B50646AC
:104180000D46162068432149085AB04201DC002739
:104190003AE0162068431D494018808AB04201DB8E
:1041A0001B4F31E000242CE01620684317494118CA
:1041B000601C4000085AB04221DC162068431349B5
:1041C00040186100415A16206843104A8218601C4A
:1041D0004000105A081A87B2162169430B4A891801
:1041E0006200895A891B6422514308463946FBF70D
:1041F00081FF074664206043C01987B203E0601C5A
:10420000C4B20A2CD0DB00BF3846F8BD40BC000069
:10421000E7030000F0B589B0002002900190009003
:1042200000244EE0092C32D100F0A6FB078A00F0F2
:10423000A3FB808A87420ADD00F09EFB078A00F01C
:104240009BFB808A381AE100AC4A505203E0002000
:10425000E100AA4A505200F08FFB807BE100A74AA0
:104260008918488000F088FB807BA5490988401A9E
:1042700000B2E100A14A89188880A248408DA24975
:104280000988401A00B2E1008918C88008E0621C61
:10429000D2009A4BD118E200D0180822FBF754FF45
:1042A000E0009649095A0298081880B20290E0008E
:1042B0009249401841880198081880B20190601C0A
:1042C00084B20A2CAEDB00F057FB807B8C4908805F
:1042D0008C48408D8C4908808C480078002805DD8A
:1042E0008A480078401E8949087000E000BF88486D
:1042F0000078002805DD86480078401E8449087053
:1043000000E000BF8248007800287DD18148007815
:10431000002806DD0A20FFF789FB0690052007909C
:1043200005E00020FFF782FB069005200790092595
:10433000002005900026049033E0E8006F49401803
:10434000C088801906B2E8004018818804980818CF
:1043500000B20490311E01DB0A4600E04A42069B8F
:104360009A4218DB0498002801DB024600E0424232
:10437000079B9A420FDB01200590002066490870D8
:1043800064480570681C614908700025049800287D
:1043900001DA01200090002D02DD681EC5B200E0A8
:1043A00007E05C480078A84203DC58480078A8423F
:1043B000C3DD00BF57480078002871DD3746142060
:1043C000FFF734FB002F01DB394600E079428842D9
:1043D00003DA0A214B4820304174FCF739FC00987D
:1043E00000285DD1059800282FDD4A48057800F0A7
:1043F000B1F9077D4349488D3946FFF7C7F806B242
:104400004048408DE90000E071E03C4A89180622EE
:104410008A5E8018089041490898884201DD084664
:1044200000E0089880B2039000F094F9077D3946C7
:104430000398FFF7ABF8301A06B23248008D7100CE
:10444000401A00B22F4908852AE0092500F082F9B8
:10445000077D2C49488D3946FFF798F806B2294860
:10446000408DE900254A891806228A5E8018089046
:104470002A490898884201DD084600E0089880B281
:10448000039000F067F9077D39460398FFF77EF83F
:10449000301A06B21B48008D801B00B219490885EE
:1044A0000598002803DD00201B49087024E0194806
:1044B000007800280DDD174800780A21081A1649EF
:1044C0000978884208DC0020124908700D490885E7
:1044D00002E000200B4908850F480078FF2805DA24
:1044E0000D480078401C0C49087005E004E00020ED
:1044F000044908850749087009B0F0BD7003002021
:10450000840000209E020020860000208100002000
:104510007C0000208000002082000020FFFF0000BF
:10452000F0B585B006460C4600200490FFF7DCF994
:10453000477CFFF7D9F9807C381AC0B20090FCF7AD
:10454000EBFC039009210398FBF7EAFD80B203908E
:10455000FFF7CAF9877C3846FCF7DEFC02900020A2
:104560000190002510E00298B04202D10120019094
:1045700010E00298B04200DD0CE003990298401868
:1045800080B20290681CC5B2A800001940881C497E
:104590008842E8DB00BFA800001940880490184951
:1045A0000498884205DBA8000019001F4088049089
:1045B00022E00198002804DDA8000019408804903A
:1045C0001AE0A90009194A88A9000919091F498890
:1045D000511A039B029AD21AB21A5143084619463D
:1045E000FBF79EFD80B20490A8000019001F4188CF
:1045F0000498081880B20490049805B0F0BD00003B
:104600000F270000F8B50446FEF792FF0090FCF774
:1046100075FC0646FEF7A8FF0090FCF76FFC054608
:10462000AC4201DD204600E02846B04205DAAC424B
:1046300001DD204602E0284600E030460446711BBA
:10464000621B64235A431046FBF754FDC7B2384639
:10465000F8BD000070B5044613484088A04201DA56
:10466000204601E0104840880F490988884208DA4E
:104670000D484088A04201DA204604E00A484088FC
:1046800001E0094800880446074A1288064B5B8807
:10469000D11A054A5288A21A64235A431046FBF7DE
:1046A00029FDC5B2284670BD4802002070B5FFF74D
:1046B0001FF9807D002801D1114C1EE0FFF718F989
:1046C000807D01280FD10F480088002801D10C4CB3
:1046D00013E00A210C480088FBF722FD09490988EC
:1046E000081A84B209E001F0C9FE05460A2106480D
:1046F0000088FBF715FD281A84B2204670BD000023
:10470000FFFF0000F80000200001002010B50A485B
:104710000088002801D1FF240BE0074800883C28CE
:1047200001DA012405E03C2103480088FBF7F8FC8E
:10473000C4B2204610BD0000F800002010B54B2187
:10474000C90003480068FBF7D5FC84B2204610BDC1
:10475000FC000020004870474E040020F8B57B4D57
:1047600000F0A6F9808D2988884203DD00F0A0F9C9
:10477000878D00E02F8800F0D5FA2030C07F8000C0
:104780004019408887420BDA00F092F9808D298821
:10479000884203DD00F08CF9808D08E0288806E06F
:1047A00000F0C0FA2030C07F8000401940880646E3
:1047B0006648C07D00283AD16448407D8000401999
:1047C0004088B04209DB6148407D8000285AB042F1
:1047D00003DCFFF781F8002819D000F0A3FA20309D
:1047E000C47F11E0A00040194088B04207DBA00060
:1047F000285AB04203DC55480475847506E0601EF3
:10480000C4B2524804758475002CEBDC00BF4F48DD
:10481000007D4E49497D884276D04C48407E032831
:1048200006DB4A48407D49490875002048828BE0F4
:104830004648407E012809DA4448407E0028F6D1E7
:1048400000F036F92030407E00287DD0002400F0B2
:1048500093F8478B00F090F88088874228DC3B482B
:10486000007D3A49497D884222DD00F085F8078ABB
:1048700000F082F8408A874216DD00F07DF8078A52
:1048800000F07AF8408A381A80B200900098052823
:1048900043DD2E48408AFF2805DA2C48408A401C18
:1048A0002A49488239E038E000202849488234E02B
:1048B00000F062F8878B00F05FF88088874229DB80
:1048C0002248007D2149497D884223DA00F054F8CE
:1048D000078A00F051F8408A874217DA00F04CF856
:1048E000478A00F049F8008A381A80B20090009890
:1048F000052812DD1548408AFF2806DA1348408A49
:10490000401C1249488208E01BE006E000200F49E5
:10491000488202E000200D4948820C48408AFF216D
:10492000F531884200DB0124002C04D10748407D8A
:104930000649087508E00548407E401C0349487652
:1049400002E0002001494882F8BD00004E0400202A
:1049500010B50024FEF7D0FF07280BD0FEF73CFF70
:10496000007C0B2805D0FEF737FF2030C07A0028E6
:1049700000D00124204610BD00487047600200208E
:10498000F8B54A48C07B0F2807DD4848807B2828B7
:1049900003DDFF214548817316E04448807B2828C9
:1049A00012DDFFF7E9FF078AFFF7E6FF408A381AB2
:1049B000142809DA3D48807B782801DA782001E064
:1049C0003A48807B394988733848807B78283DDABB
:1049D00000F0A8F9071D00F0A5F92030C07F800085
:1049E0003818468800F09EF98088301A86B2310166
:1049F000881B6421FBF77EFB86B200F093F9808868
:104A00002A492039898D081A84B2B4421CDD002459
:104A1000FFF7B2FF078AFFF7AFFF408A874216DD34
:104A2000FFF7AAFF078AFFF7A7FF408A381A84B268
:104A30000A21614308466421FBF75CFB84B22046EF
:104A4000FEF7F4FF044602E0002400E000241748CB
:104A50002038808D001984B2FFF77CFE077D39462F
:104A60002046FEF793FD0546FFF786FF808BA842A0
:104A700001DA2F4602E0FFF77FFF878BFFF77CFF0D
:104A8000408B87420ADAFFF777FF808BA84201DA72
:104A9000284606E0FFF770FF808B02E0FFF76CFF0F
:104AA000408B024920394884F8BD0000BE02002036
:104AB000004870479E02002008B503480178009125
:104AC00069460978084608BD7C01002010B501211F
:104AD00009030248FEF731FC10BD00000009044044
:104AE00010B50121C9020248FEF727FC10BD0000E5
:104AF00000090440004870476A04002010B50024F3
:104B000008E014216143054A88181421FBF735FB9E
:104B1000601CC4B2022CF4DB10BD00005C05002058
:104B2000014614204843014A105A70475C05002092
:104B300070B50024EBE014206043774940184088AA
:104B4000764988420DDB14206043734A8018418007
:104B5000002114206043115214206043801881808A
:104B6000D3E0142060436C49401880790028F7D0C6
:104B7000142060434018818914206043664A8018DD
:104B80004089814211DA142060431146401845895A
:104B900014206043401881891420604380184181AB
:104BA00014206043114640188581142060435A49FF
:104BB0004018C18914206043574A801840898142B7
:104BC00010DB1420604311464018C1891420604353
:104BD00080188089814205DC14206043114640180A
:104BE000C58916E0142060434B494018C189142040
:104BF0006043494A80184089814205DA14206043A5
:104C000011464018458904E0142060434249401889
:104C10008589002C27D12846FBF7F0FF0546FA2DA1
:104C200000DDFA25142060433B49085A401DA84284
:104C300005DD14206043095A681D814219DB1420E8
:104C400060433549085A1E2813DC142060430D5276
:104C5000002114206043304A801801721420604300
:104C60008018016156E0012C03D12846FBF7B0FF04
:104C700005461420604328494018007A401CC1B200
:104C800014206043244A80180172142060431146A6
:104C90004018006941191420604380180161002CFC
:104CA0000BD1142060431146401800691C4988420A
:104CB00003D9142060438018016114206043164911
:104CC0004018007A0A2816DB002114206043124A9B
:104CD0008018017214216143891808690A21FBF7C1
:104CE00009FA81B2142060430B4A115200211420AA
:104CF000604380180161002114206043064A801837
:104D0000C1711420604380188171601CC4B2022CF0
:104D100000DA10E700BF70BD5C0500204C1D0000EC
:104D2000C409000000487047D403002000487047C1
:104D3000ED0000200549064A116011460968034A42
:104D400002431143024A1160704700000000A55A57
:104D5000007400400148024948607047AAAA000058
:104D60000074004002E0024802494860FBE700008E
:104D7000AAAA00000074004010B500200021002203
:104D800000BF33E01D4B1B780124844023401946AB
:104D90001A4B5B780124844023401A468A421FD074
:104DA000164B9B1C1B5C142B0BDB144B5C780123F8
:104DB00083409C43114B5C705B780B430F4C6370DA
:104DC00012E00E4B9B1C1B5CFF2B08DA0B4B9B1C51
:104DD0001B5C5B1CDCB2094B9B1C1C5404E003E015
:104DE0000024064B9B1C1C54431CD8B20828C9DB6A
:104DF000034C024B5B78237010BD0000FC040020C4
:104E00003C01002010B540211548FEF796FAC40772
:104E1000E40F14480078400840002043114908700E
:104E2000012109030E48FEF788FA400002210840DC
:104E300004460C480078884320430A490870012141
:104E4000490307488038FEF778FA800004210840BB
:104E5000044604480078884320430249087010BD86
:104E600000090440FC04002010B5FEF7B5FC007CEE
:104E70000E282FD118480068002803D8FEF73CFD03
:104E800004280AD114480068002805D01248006898
:104E9000401E114908601DE01CE0FEF79DFC072143
:104EA00040300174FEF724FDC47AFEF795FC0474CB
:104EB000FEF71EFD047AFEF78FFC4474FEF718FD22
:104EC000447AFEF789FC8474FEF712FD847AFEF7BB
:104ED00083FCC47410BD0000B000002001490880AC
:104EE000704700009401002070B53349087BFEF73D
:104EF00081FC0546FFF740FD40783049C8702878AE
:104F000008712D48007B487168788871A878C8714D
:104F100068680078087268780D2809D1A8780E288A
:104F200006D1FFF729FDC078401C2449487208E0EB
:104F3000FFF722FD06893C213046FBF7F1F81F49B7
:104F40004872FFF719FD807AFF2803D0FFF714FDA0
:104F5000847A09E0FFF710FDC07AFF2803D0FFF73D
:104F60000BFDC47A00E0FF2414488472FFF704FDAF
:104F7000468A0A213046FBF7D3F8C4B2FFF7FCFC9F
:104F8000468A0A213046FBF7CBF8052901DD601C73
:104F9000C4B20A48C472FEF7A7FC407B07490873F5
:104FA0000548C47DFFF7C2FE0078042800D1044301
:104FB0000248447370BD0000F6010020B8010020D3
:104FC0001348407B1349C87011480D304078087170
:104FD0000F480D30807848710D480D30C0788871C9
:104FE0000B480D300079C87109480D3040790872BE
:104FF00007480D308079487205480D30C0798872B5
:1050000003480D30007AC872002008734873704757
:1050100016020020B80100207047704770477047A3
:1050200070B500202949C87004200871FEF710FDF2
:10503000006805880A212846FBF772F82349487161
:105040002348007C88710024FEF74EFCC07D0028B8
:1050500001DD80200443FFF74DFD007AC007C00F3B
:10506000002801DD082004431848C471FFF784FCC0
:10507000807B16490872FFF77FFC858A0A21284643
:10508000FBF74EF8C4B2FFF777FC858A0A21284661
:10509000FBF746F8052901DD601CC4B20B484472D9
:1050A000FEF79AFB407C09498872FEF795FB807CED
:1050B0000649C872FEF790FBC07C04490873FEF7EE
:1050C000EFFB401E0149487370BD0000B80100208D
:1050D000F601002010B5FEF715FCC08900121E492C
:1050E000C870FEF70FFC807B1B490871FEF70AFCB5
:1050F0008089001218494871FEF704FC007B1649AC
:105100008871FEF7FFFB0068000E1349C871FEF7B7
:10511000F9FB00680002000E0F490872FEF7F2FB6F
:1051200000880004000E0C494872FEF7EBFB007883
:1051300009498872FEF7B2FB401E0749C872FFF7A3
:10514000D9FC0088001204490873FFF7D3FC0078EB
:105150000149487310BD0000B801002070B5FEF78A
:10516000C3FB007C3449C870FEF7BEFB807B32492C
:105170000871FFF701FC85882846FBF7B1FE2E4930
:105180004871FFF7F9FBC58D3C212846FAF7C8FFA7
:1051900029498871FEF7B6FB4068000E2649C871A0
:1051A000FEF7B0FB40680002000E23490872FEF7CC
:1051B000A9FB80880004000E1F494872FEF7A2FB7D
:1051C00000791D4988720024FEF79CFB407C000793
:1051D000C00F002801DD402004431748C47204209A
:1051E00005F01CFB002801D0002407E0FFF7C4FBFA
:1051F000058B0A212846FAF793FFC4B20E480473C0
:105200000024FFF777FC007A8007C00FC001044339
:10521000FFF770FCC07900012043C4B2FEF772FBB7
:10522000407C8007C00FC0000443FEF76BFB007C8E
:1052300004430148447370BDB801002070B539487B
:10524000007F3949C8703748407F0871FFF794FBE9
:10525000807B3549487100208871FFF78DFB858A76
:105260000A212846FAF75CFFC4B22F48C471002413
:10527000FFF75CFD0078002801D002200443FFF70F
:1052800055FD0078032801D120200443FFF74EFD8F
:10529000C0788007C00F002801DD08200443FEF716
:1052A00031FB407C4007C00F002801DD4020044353
:1052B0001D4804721B48007E1B494872002419488F
:1052C00020308079012801D108200443154820307E
:1052D000C079012801D11020044312482030007AFF
:1052E000012801D1202004430E482030C07A012833
:1052F00001D1802004430D480078002801DD4020C2
:10530000044309488472FFF737FB2030807A06494E
:10531000C872FFF731FB2030C07A034908730020C0
:10532000487370BDF6010020B8010020560000202F
:1053300070B5284800782849C87026484078087118
:105340002448807848710020887100242148407AE0
:10535000012800D104431F4820300079012801D1E1
:10536000022004431B48C07E012801D108200443C9
:105370001A480078002808DDFFF7FEFA4078C007D9
:10538000C00F002801DD102004431248807D8001F9
:105390002043C4B2FFF7BAF9FF2801D0202004430C
:1053A0000D48C4710B48007E0B490872FFF77EF967
:1053B000054609494D7228128872FFF7A7F9064978
:1053C000C872FFF7BBF9054603490D7328124873ED
:1053D00070BD000016020020B80100205600002019
:1053E00010B52748C0782749C8702548007908714A
:1053F0002348407948712248C07E887100242048A3
:1054000020304078002801DD012004431C48203072
:105410008078002801DD04200443194820304079B9
:10542000002801DD20200443154820308079002821
:1054300001DD402004431348C47100241048203883
:10544000407E4406640EFEF75DFA407CC007C00F44
:10545000002801DD802004430A4804720848007FC8
:10546000084948720648407F88720548807FC872A4
:105470000348C07F0873024820300078487310BD8D
:1054800016020020B801002010B51E48C0781E4941
:10549000C87000200871487100241A48C07A04437B
:1054A0001848807AC0002043C4B204F0F1FB0078B1
:1054B00000012043C4B21448847112482038407B54
:1054C0001149C8710F481338407808720D481338D5
:1054D00080784872FFF750FA2030007B0A498872C2
:1054E00000240848407B002801DD202004430548B3
:1054F000807B04430448C472002003490873487346
:1055000010BD000036020020B801002070B5FFF782
:1055100033FA008900122349C870FFF72DFA007A88
:1055200020490871FEF760F904467D21C9006143F6
:1055300008461D49FAF7DEFD84B220121949487168
:105540008C7104F0DFF9448820121649C8710C727E
:10555000FEF716F804467D21C90061430846134949
:10556000FAF7C8FD84B220120E4948728C720025E9
:10557000FEF7BAF9C07F002801D00120054304F0EE
:10558000C1F940798007400F054304F0BBF9007969
:105590008007C00E05430348C57200200149087307
:1055A000487370BDB8010020E02E000070170000A5
:1055B0007047000010B5402001F0EEFC012829D111
:1055C00001F05CFC14490870032001F033FD012058
:1055D00001F012FD00BF01F0EBFC0028FBD0002021
:1055E00001F03CFD002001F0EBFC00BF012001F0C8
:1055F000E7FC01E0FFF7AEFB01F0DAFC0028F9D090
:10560000802001F01DFC012001F028FD02480078F7
:1056100001F010FD10BD000004000020C206D20EF3
:1056200001219140014A11607047000080E100E0D3
:1056300010B5002819DA1A4A03071B0F083B9B080C
:105640009B00D2588307DC0EFF23A3409A438B07AD
:105650001B0E8407E40EA3401A43114B0407240FCA
:10566000083CA408A4001A5118E00E4A03231B02A8
:10567000D21883089B00D2588307DC0EFF23A34077
:105680009A438B071B0E8407E40EA3401A43054B75
:10569000032424021B198408A4001A5110BD000021
:1056A0001CED00E000E100E003488068932109045C
:1056B000084301498860704700640040154A116042
:1056C000154AC262134A126812684260114A12688F
:1056D0005268C2600F4A1268926802610D4A1268ED
:1056E000D26842610B4A126812698261094A1268E3
:1056F0005269C261074A126892690262054A1268D9
:10570000D2694262034A1268126A82620022C2624D
:105710007047000034010020CC330000064AC2620A
:10572000002902D00122026002E00122D24302607D
:105730000022C26270470000CC330000044BC362F9
:10574000002901D1426200E082620023C3627047F7
:10575000CC3300000168C908C9000160402201681B
:105760009143016092010168914301605200016818
:105770009143016092000168914301600322120489
:1057800001689143016038220168914301601F2242
:10579000D2010168914301600122920301689143A3
:1057A000016001688903890B01609211416991438D
:1057B0004161C02241699143416130224169914375
:1057C0004161082241699143416104224169914349
:1057D00041614169890889004161818AC905C90D12
:1057E00041619201816991438161C0228169914344
:1057F00081613022816991438161082281699143ED
:1058000081610422816991438161816989088900EC
:105810008161018BC905C90D8161002141608160F1
:10582000C1600161C16101627047000070B504464A
:105830000025208C0A21FAF773FC2084E28BA37BDD
:105840005A431046218CFAF755FC86B214202A4997
:1058500088800120C88005200881208A618A401A3A
:1058600005B225488188C068281A41432248C0886B
:10587000684309182048C0684000281A1E4A126967
:1058800080181D4A1289504308181B4908600846B1
:10589000C06808610846C5600068FF21F53188428C
:1058A00003DD08461449086007E0134800681349FF
:1058B000884202DA0846104908600F4840690E49DC
:1058C000096840180C49486108464069C11701231E
:1058D000DB07DA17C01A914102DAD007064948619E
:1058E00000BF0549496971430846FF21F531FAF7C0
:1058F00017FC00B270BD0000C00600200CFEFFFFC8
:1059000010B50A4A42604A8882608A88C260CA88A2
:10591000026102680E239A430B785B000E24234039
:105920001A4302600022426010BD0000A55A000028
:10593000074A4260002904D0026801231A4302602A
:1059400003E0026852085200026000224260704781
:10595000A55A000010B5124B436080230B40002B6A
:105960000BD0012A05D003688024A3438033036051
:1059700003E003688024A343036040230B40002B13
:105980000BD0012A04D003684024A343036004E041
:1059900003684024A343403303600023436010BDE9
:1059A000A55A0000024A4260C1600022426070476E
:1059B000A55A00007047000000200349C860086134
:1059C0000860486170470000C00600201748007A50
:1059D00007280BD115482030407E002820DD1448D0
:1059E00040788006400F1149087219E00F48007A8C
:1059F0000F4949788906490F884211D10B48017A2D
:105A0000401C405C002808D009488078C008012864
:105A100006D10648C07A002802D10720034908723F
:105A2000002102482030417670470000F601002036
:105A30004C00002070B55D480078002805DD5B480B
:105A40000078401E5949087000E000BFFFF76EF96A
:105A50000078032818D0FFF769F90078012813D0DF
:105A6000FFF764F9007802280ED032204F49087001
:105A700000204F4908704F48407C042188434D491D
:105A8000487400204C4908704C480078FF2805DA1B
:105A90004A480078401C4949087000E000BF474868
:105AA0000078052843DB41480078002837D1FEF70D
:105AB00063FF807B424909880C1A0920C043844255
:105AC00014DB0A2C12DC3A480078FF2805DA384843
:105AD0000078401C3649087000E000BF3448007868
