:020000040000FA
:10000000C80A0020D500000001540000B14B0000D8
:10001000E7000000E7000000E7000000E700000044
:10002000E7000000E7000000E70000007D7400002A
:10003000E7000000E700000001580000297D0000F3
:10004000E7000000E7000000E7000000E700000014
:10005000E7000000E7000000E700000009090000D9
:10006000E7000000E7000000E7000000F554000092
:10007000E7000000E700000095190000DD820000A5
:10008000E7000000E70000008983000035840000DD
:10009000E70000000D190000E7000000E700000085
:1000A000E7000000E7000000E7000000E7000000B4
:1000B000E7000000E7000000817E0000E70000008C
:1000C0000348854600F088FB00480047059A000079
:1000D000C80A00200548804705480047FEE7FEE7BC
:1000E000FEE7FEE7FEE7FEE770470000797E0000CE
:1000F000C100000030B50B4601460020202201243B
:1001000009E00D46D5409D4205D31D469540491B4B
:100110002546954040191546521E002DF1DC30BD94
:1001200070B500242546002801DA01244042002948
:1001300001DA01254942FFF7DDFFAC4200D0404221
:10014000002C00D0494270BD03460B439B0703D0EF
:1001500009E008C9121F08C0042AFAD203E00B788C
:100160000370401C491C521EF9D27047D2B201E004
:100170000270401C491EFBD270470022F6E710B502
:1001800013460A4604461946FFF7F0FF204610BD05
:1001900030B504460020034600E05B1C934203D2C6
:1001A000E05CCD5C401BF8D030BDF8B502464A405B
:1001B000D40F42004B0052085B089A4202D202461A
:1001C000084611464A0023D0C30D4A00DDB2120E84
:1001D000AD1A202D35DA49020126490AF6058A1999
:1001E000002C00D0524220214F1B1146B9402A4119
:1001F0001018C20D9A4221D0002C17D0012D08DC16
:10020000DA05801AD20F8019D207DBB200F04BFA60
:10021000F8BDDA05801A012340001B06C0188018BB
:100220005A428018CA0F1043490007E04908C20724
:100230001143DA05801A80194008801800F02BFA63
:10024000F8BD61000122511A001BF7E70122D20715
:100250005140AAE70122D2075040A6E7024670B5F6
:100260004A40D30FDB0740002DD04A002AD0010EB0
:10027000140E000212020919400A520A8418E501FC
:1002800004465443000A120A2E045043A41942198A
:10029000200CC543AA18120C0125AD03521C52199B
:1002A00012047F39240400D0521C104301D44000B2
:1002B000491EC2B20C06C0092018401C4008802A02
:1002C00002D003E0002070BD40084000002900DAA1
:1002D0000020184370BD70B502464A40D50F40005B
:1002E0004A00ED0740085208002814D0002A12D016
:1002F000C40DD30D41020120C0055202490A520A21
:10030000E41A091812187D34914201D3641C00E0EC
:100310004900002C01DA002070BD0023914201D376
:10032000891A0343400849000028F7D100290AD060
:10033000914202D10121C90705E0914201D2012178
:1003400001E00121C943E005C018401900F0A3F9FC
:1003500070BD0000F0B507460846584087B0C00F92
:10036000049048000E46590040084908BC1A8841CC
:1003700005D2384631461E4617460B4602465800FF
:10038000400810434CD0300D039040055900400DFB
:10039000490D0590401A0290402872DA1803012195
:1003A000000B09050843019004980092002805D02D
:1003B0000199524200208841009201900298402108
:1003C0000A1A0199009800F043F905460C466B465D
:1003D00007CB00F04DF9C0197141039A0E0D0023AF
:1003E000D71756401A467A40164344D0049A002A3A
:1003F0002DD0029A012A039A15DC1205C01A9141E8
:1004000001263605001C7141D20F059ED2070093CC
:10041000019202962A46234600F08BF907B0F0BD00
:1004200038463146FAE71605224A0F46B218C01A76
:10043000B74101210905001C4F4100187F411146B9
:1004400018187941E20F10436D19644113E0E20777
:100450006D0815436408C2071443039A0126120568
:10046000C01A91413605001C7141CE074008304347
:100470004908C01851412A46234600F04DF9CDE7FE
:10048000FFE7049801224000C117121A00238B4194
:1004900004983146C417381AA141EEE730B401245C
:1004A000E407634030BC55E730B40124E407614001
:1004B00030BC4FE70000E0FFF0B51FB488B00B99E7
:1004C0000998002448400999C00F4900490809913A
:1004D000C0070B990090490049080B9109990898A9
:1004E000A64608431CD00B990A98084318D00998CF
:1004F00001244000420D4800410D099824050003E5
:10050000000B204309900B980003000B20430B9035
:1005100050181C494018002201901446104605E06E
:10052000002001460DB0F0BD032801DA034600E0CB
:1005300003239C46C11A0AAE0AE05F0008ADED5BDA
:100540004F00F75B7D430027AA187C41491C5B1EC6
:100550006145F2DD410004AB5A522104120C0A43FA
:10056000240C401C0828DFDB01980290009970469B
:1005700001910090059B049A0799069800F0D9F81C
:10058000D0E700000DFCFFFFC217C10F504010B5AF
:100590004018CA079623002100F085F810BD00001E
:1005A0000EB5C217C10F5040CA0740180021054BB5
:1005B0000293019200910A460B4600F0BAF803B08C
:1005C00000BD000033040000410040020122400A47
:1005D000D205090E80187F2901DA0020704796297C
:1005E00003DC9622511AC8407047963988407047FC
:1005F000C20FD207400040080BD0C10D0723DB011A
:10060000C91840020905400A1143C20840071143B6
:100610007047002001467047CB0FDB07490010B53B
:10062000490802460A4307D00A0D07240903E401DA
:10063000090B121B002A01DC002010BDC900440F69
:100640000C43C100E018D205801800F024F810BD5A
:1006500010B5202A04DB0146203A9140002010BD4D
:10066000914020239C1A0346E3401943904010BD5B
:1006700010B5202A06DBCB170846203A1041C117D7
:100680000B4306E00B461341D0402024A21A9140B0
:100690000843194610BD002904DA401C490001D165
:1006A00040084000704770B40024050C05D11024A8
:1006B000000402D1002921D01124050E01D100022D
:1006C0000834050F01D10001241D850F01D18000E0
:1006D000A41C002801DB4000641C002908D0202550
:1006E0002E1B0D46F540A14000D0012129430843AF
:1006F00001061B1B000ADB1D02D5002070BC7047E1
:10070000DB05181880180029F8DA401C4900F5D1DB
:1007100070BC40084000704710B5002B08DA002478
:10072000401C614192185B411A4301D140084000CE
:1007300010BDF0B51FB482B005460C0003D00846CA
:1007400008F017FC02E008F014FC2030024600908C
:1007500021462846FFF77CFF049B059A04460F4676
:1007600018431143084314D0184610431BD0009877
:1007700040210A1A1846059900F040F805460E4631
:10078000009A05990498FFF763FF084305D00120FC
:1007900004E02046394607B0F0BD0020C1170543EC
:1007A0000E432C43374300990E986305401A790590
:1007B000E40A00220C43FD0A0A3002D5002001465B
:1007C000E9E70105101969410C9C0D9D001969416B
:1007D000FFF7A2FFDFE70000064C0125064E05E00B
:1007E000E36807CC2B430C3C98471034B442F7D352
:1007F000FFF76AFCA0D00000C0D0000010B5202A8E
:1008000004DB0846203AD040002110BD0B46D340FF
:10081000D0402024A21A91400843194610BD70B55B
:100820008C180578401C6B075B0F01D10378401CC6
:100830002A1106D10278401C03E006780E70401C95
:10084000491C5B1EF9D12B0705D40023521E0DD481
:100850000B70491CFAE70378401CCB1A921C03E08A
:100860001D780D70491C5B1C521EF9D5A142D8D3CE
:10087000002070BDF0B504460D461F460020002143
:100880009310DB1ED8B2174B1B6801268640B3437A
:10089000144E336033461B683E4686403343114E48
:1008A000336004280CDAA16BC6001F23B3400E4648
:1008B0009E433146C6002B46B3401943A1630FE067
:1008C00008280DDA031FD8B2E16BC6001F23B3401E
:1008D0000E469E433146C6002B46B3401943E163A2
:1008E000F0BD00004084004002460020535898B2FA
:1008F0007047014600200A68D207D20F002A01D0B3
:10090000012000E0002070477047000070B500240F
:10091000002200230568AAB24368144D2A400D78CE
:100920006D004E78F6003543CE78360235432A43C3
:1009300002600F4D2B400D794E79360135438E798B
:1009400036023543CE79360435432B430D78012DDD
:100950000AD10D7AAD10ED1EECB28568ED08ED0000
:100960008560856825438560436070BDF180FFFF29
:1009700080F0F8FF002905D002680123DB031A4349
:10098000026004E002680123DB039A4302607047BF
:1009900001680122114301607047000010B502F0A8
:1009A00035FF007C022840D102F0C0FF04283CD172
:1009B00004F0E2F80078002804D004F0DDF80078B4
:1009C000042832D12548007AC007C00F002829D159
:1009D0000121234806F0DAFB00280BDD1F48408880
:1009E0002049884205DA1D484088401C1B49488040
:1009F00000E000BF02F00AFFC47C0A214C43174804
:100A00004088A04219DB1548007A40084000401C8D
:100A10001249087200F034F802F0F8FE0721403065
:100A200001740AE000F02CF807E000F029F80B4808
:100A3000007A4008400009490872084884790A2170
:100A40004C434088A04201DB002403E00348408877
:100A5000201A84B20148048010BD00005604002012
:100A6000B8000020FFFF000000B500F009F80348BF
:100A7000007A400840000149087200BD5604002079
:100A8000002001494880704756040020FEB503F05D
:100A900099FE848803F096FE808BA04201DA2746F7
:100AA00002E003F08FFE878B03F08CFE408B8742C1
:100AB0000ADA03F087FE808BA04201DA204606E0C6
:100AC00003F080FE808B02E003F07CFE408B044646
:100AD000002C71DD3C480078002861D103F072FEE3
:100AE000C78B04F045F82030807E474364213846A8
:100AF0000097FFF7FFFA80B20190344800888442E3
:100B00002BDB32480088201A86B203F05BFEC78BCD
:100B100004F02EF8C08E47437D21C9003846009767
:100B2000FFF7E8FA85B208F055FE007A68430746F9
:100B30006421FFF7DFFA85B2AE420BDD01988642F1
:100B400008DB012D00DA01252048008840191F49E3
:100B5000088033E01D48048030E01C480088001BFA
:100B600086B203F02FFEC78B04F002F8008F4743D4
:100B70007D21C90038460097FFF7BCFA85B2AE4226
:100B80000BDD0198864208DB012D00DA01250F48B4
:100B90000088401B0D49088010E00C4804800DE0DF
:100BA00009480078002806DD07480078401E0649FD
:100BB000087003E000E001E0044804800348008876
:100BC00000F0C4FDFEBD000096010020940100204D
:100BD00070B50546074C29462046FFF78BFA0446B8
:100BE0000548844201D2204600E003480446A0B2F2
:100BF00070BD0000F0490200FFFF000070B505461F
:100C00000A4C29462046FFF775FA0446FF342D3476
:100C100051212046FFF76EFA04460548844201D26E
:100C2000204600E002480446A0B270BD40420F00DA
:100C3000FFFF000005484088401C044948800846E2
:100C4000C08A401C81B20148C1827047480500201B
:100C500010B500200249C87506F0E0FB10BD000089
:100C60003A04002010B551210F48FFF786FA0721FA
:100C70000E48FFF782FA0A220D490E4808F06EFD71
:100C80000A220D490D4808F069FD0720064908723F
:100C9000072105484030017401218171FF2002497C
:100CA0000874C877887710BDF60100205D00002029
:100CB000D4010020C8010020EC010020E001002048
:100CC00010B500F001F810BD10B5002009F082FF4A
:100CD00010BD000010B506488079962806DB00207C
:100CE0000349887100F05EF800F004F810BD0000C0
:100CF0005D0000201CB503200190002000900F2112
:100D00002348FFF73AFA01A9224808F031FD2048AC
:100D10004078C008C000694609794907490F08436F
:100D20001B49487069461C4808F022FD1848807825
:100D3000F821884369460978C900F8221140084320
:100D400013498870FA200870084640783821884393
:100D500020300F49487008468078C008C0000F490D
:100D6000097C4907490F0843094988706946097891
:100D700089000B4A505880470F21054800F0A0F821
:100D8000034988730F22002009F094FD1CBD000068
:100D9000B8010020E0010020C80100203602002038
:100DA000B4B000001CB50021019100913B480079CE
:100DB000002812D13A480078401CC0B23849087067
:100DC000062801D300200870354800783549085CB2
:100DD000019001A9314808F0E2FC3348007900286D
:100DE0005AD13248007800280BDD30480078401E88
:100DF0002E4908700A20009069462B4808F0CFFC65
:100E00004AE02B48007B002823D002F063FD2849EC
:100E1000097B88421DDD27480078002806D0264837
:100E20000078009000202349087031E0012021491A
:100E300008701B484078401CC0B219494870082807
:100E400001D300204870164840781B49085C009088
:100E50001EE01A480078401CC0B2184908700428E7
:100E600004DD00200870082000900EE00C48407857
:100E7000401CC0B20A494870082801D300204870BD
:100E8000074840780C49085C009000200949087028
:100E90006946054808F083FC1CBD0000E001002005
:100EA0005A000020A4B00000C80100205C0000200F
:100EB000F601002066000020AAB0000065000020B6
:100EC00010B502460B460020012100BF03E0545C30
:100ED00060404C1CE1B25C1E8C42F8DC10BD00008E
:100EE00070B5044621460A02501A0349FFF702F979
:100EF000C5B2284670BD00007017000070B50446EA
:100F00002546044969430846FF21FFF7F3F885B2F7
:100F1000284670BD7017000070B504462546044988
:100F200069430846FF21FFF7E5F885B2284670BD02
:100F30001F030000F8B505460E4614460027042D91
:100F400006D00D2D1FD0142D33D01D2D7ED168E07D
:100F500020782901604A5158087060782901891861
:100F600049680870A0782901891889680870E078B4
:100F700029018918C9680870280111464018476876
:100F800005F014FF83E0E078552807D12178534815
:100F9000017061784170A178817009E0E078AA2839
:100FA00006D121784D48C17061780171A1784171F5
:100FB0006DE0217849480173007B552803D1052055
:100FC0004749087004E04548007BFF2800D000BF77
:100FD0004248007BA02808D1617840484173A1783D
:100FE0000D304170E178817018E03C48007BA12809
:100FF00008D1617839480D30C170A1780171E1786C
:1010000041710BE03548007BA22807D16178334855
:101010000D308171A178C171E178017206F008FA92
:1010200035E0E0780C2818D22078E17809012D4AC3
:10103000515808706078E17809018918496808708A
:10104000A078E17809018918896800E006E0087055
:10105000E078000111464018476818E0207829011F
:101060001D4A51580870607829018918496808702C
:10107000A0782901891889680870E0782901891801
:10108000C9680870280111464018476800BF00BFB2
:101090001548874203D1017810481F3881550F4801
:1010A000203802F023FB052E08D14B20C0000F4949
:1010B0000880022109482038817104E0002E02D105
:1010C00064200B490870002D04D0082D02D0094877
:1010D00009490880F8BD0000F0B0000016020020A9
:1010E0005C000020D0B20000640000205800002006
:1010F000560000207017000054000020F8B503F0DF
:101100004DFB064600F0C0F902F008FC477C08F0F1
:1011100061FB06214156781884B2002E04D002F0FB
:10112000FDFB807D001984B2FF2C01DA204600E02F
:10113000FF200446E0B2FFF7EFFE3849088002F0D6
:10114000EDFB877C08F046FB07214156781884B2F6
:10115000FF2C01DA204600E0FF200446E0B2FFF752
:10116000DBFE2E49488002F0D9FBC77C08F032FB39
:101170000A214156781884B2632C01DA204600E037
:10118000632004463C2060432449088102F0C6FBEA
:10119000077D08F01FFB0921415678181F49488137
:1011A000632C01DA204600E0632004463C206043C3
:1011B0001A49488103F0DCFC203000781749887414
:1011C00003F0D6FC203040781449C8740988134ACB
:1011D0005288891A4A0088180521FEF78BFF0F49AB
:1011E000498840180D49888103F0D4FA407D0028D1
:1011F0000DD003F0E7FAC588502169430846642101
:10120000FEF778FF0546A8B200F0B8FA05E003F053
:10121000D9FAC788384600F0B1FAF8BD4802002074
:10122000F1B584B0049F049F38B2019088490988C1
:101230000198401A00B20190864800888549498883
:10124000401A80B203900A210398FEF769FF80B22A
:1012500003900198002801DB014600E04142039A17
:10126000914209DB7A490988002905DD04990029A2
:1012700002DD1E2078490870754904980880754879
:101280000088098888420CDC72490988714A927C7E
:10129000514308460A21FEF72DFF86B26D480589A5
:1012A0004EE06C4840886A49098888420CDB6949ED
:1012B0004988684AD27C514308460A21FEF71AFF42
:1012C00086B2644845893BE062480088614A52889A
:1012D000811A6048807C5F4AD27C801A5D4A5288BD
:1012E0005B4B1B889A1A50430090FEF719FFC0B25F
:1012F00002905848C17C02980818C0B20290544924
:101300000988029A514308460A21FEF709FF86B26E
:10131000504800884F4A5288811A4E4800894D4AE9
:101320005289801A4B4A5288494B1B889A1A50435B
:101330000090FEF7DFFE85B246484089401985B22D
:1013400003F016FCC069014600904148008803F094
:1013500007F904463F490C820846C581407D0028B4
:1013600071D16721614308466421FEF7C3FE87B24D
:1013700003F028FA0089B8425EDB354800888642CF
:1013800001DA33480688A54201DC601C85B203F00F
:1013900019FA0089A04203DD03F014FA008900E085
:1013A0002046A8420ADA03F00DFA0089A04203DDC4
:1013B00003F008FA028902E0224600E02A4603927E
:1013C000291B039A121B64235A431046FEF792FE10
:1013D000C0B2029020480078002812D11D4902981E
:1013E00088750398001B1A4A1288B21A50430346A4
:1013F000291BFEF77FFE87B215480088381887B290
:1014000023E01448817D0298814201DD029801E0C9
:101410001048807D0F4988750D490988711A0D4A59
:10142000927D514308466421FEF77AFE87B2084850
:101430000088381887B208E0054807880020054969
:10144000887502E0FFE702480788384605B0F0BD1E
:101450006A000020480200206800002070B50446A1
:101460000848007D002808DD0A2002F014F9251A3A
:1014700003F0A8F9808B281884B2204602F02CFAD9
:1014800070BD00004802002015480088401C80B252
:10149000134908800A2822DB002008801148007DBB
:1014A000002805DD0F48007D401E0E49087500E04C
:1014B00000BF0C48407D002805DD0A48407D401EE5
:1014C0000849487500E000BF07480078002805DD9E
:1014D00005480078401E0449087000E000BF7047CE
:1014E0006C0000204802002068000020F8B5074684
:1014F00000253E48C65D0120064301023C4801F03C
:1015000040FF012008F0D6F84021394801F039FFAA
:10151000012008F0CFF8FF210131354801F034FFF8
:10152000012008F0C7F8002420E0F007C00F0028D1
:1015300004D080212E4801F027FF03E080212C48B1
:1015400001F01FFF7610012008F0B4F84021284870
:1015500001F01AFF012008F0ADF84021244801F005
:1015600010FF012008F0A6F8601CC4B2082CDCDBD8
:1015700080211F4801F02BFE012008F09BF8002479
:1015800018E06D1080211A4801F0F1FE002801D00A
:10159000802005434021164801F0F6FE012008F0A6
:1015A00089F84021124801F0ECFE012008F082F891
:1015B000601CC4B2082CE4DB80210D4801F069FEF8
:1015C000FF2101310A4801F0DCFE012008F072F829
:1015D0008021074801F0D5FE012008F06BF880213A
:1015E000034801F0D1FE2846F8BD000090CD000070
:1015F0000008044070B504462046FFF777FF054613
:1016000028110A2148432907090F4018C5B2002CA8
:1016100001D0012C07D13C2D02DB0848055D0BE011
:101620000648055508E0022C06D1182D02DB0348B8
:10163000055D01E001480555284670BD9A0100206E
:1016400010B5002405E00021204600F00BF8601CD6
:10165000C4B20A2CF7DB10BD10B503F0F9FA03F0A1
:10166000B1FA10BD70B504460D46072C69D0012CA7
:101670000CD1002D04DD4102324801F085FE60E00E
:10168000012149022F4801F07CFE5AE0022C0CD1C6
:10169000002D04DDE1012B4801F076FE51E0FF2131
:1016A0000131284801F06DFE4BE0032C0BD1002DD9
:1016B00004DD8021234801F067FE42E080212148BB
:1016C00001F05FFE3DE0042C00D13AE0052C0DD185
:1016D000002D05DD012189021A4801F055FE30E098
:1016E00001218902174801F04CFE2AE0082C28D07D
:1016F000002C09D1002D03DDF02000F0B7F820E028
:10170000002000F0B3F81CE0062C0DD1002D05DD03
:1017100040210C48803801F034FE12E04021094895
:10172000803801F031FE0CE0092C0AD1002D04DDD7
:101730000421054801F025FE03E00421024801F0E0
:1017400023FE70BD000904400008044010B50446A3
:101750002146074A514308461146FEF7CBFC84B2A6
:101760000448048022460121034803F00DFF10BD08
:1017700070170000980100200068004070B5044612
:10178000002C01DD204600E000202F49884205DAC8
:10179000002C01DD204602E0002000E02A4804463B
:1017A00021462A4A514308462749FEF7A3FC84B242
:1017B00027480078002808D026480078002804D060
:1017C00001210920FFF74EFF03E000210920FFF768
:1017D00049FF1F480078002805DD1D480078401E9D
:1017E0001B49087000E000BF1B480088844223DAD0
:1017F0001748007800281FD117480088051B64216E
:10180000694308461149FEF775FC054613490D80EA
:10181000142D08D928461438050911490D70681D82
:101820000B49087004E0052D02D305200849087013
:10183000074800780B49087021460B4803F0D8FF91
:101840000548048070BD00001F030000E02E00006A
:1018500040010020410100203E0100204401002001
:1018600043010020420100200048004070B50446BA
:10187000064961430846FF21FEF73CFC85B22A4633
:101880000021034803F080FE70BD000070170000C7
:101890000064004010B5044672B6002000F004FA5F
:1018A000204600F065F900F085F962B610BDFFB57D
:1018B00081B00E4614461F460C2000901CE0142CEC
:1018C00002D31425143C01E0E5B2002472B60120D5
:1018D00000F0EAF93B462A463146019800F098F9B3
:1018E000009000F067F962B676197F1900980C280D
:1018F00002D0002005B0F0BD002CE0D100980C28EB
:1019000001D10120F6E70020F4E7000010B5012026
:10191000800300F04BF8012819D1800300F03CF857
:101920000F2007F013FF01218903194801F01FFD63
:1019300000280CD10A2007F009FF0121890314486F
:1019400001F015FD002802D1012007F0C7FE01209B
:10195000000300F02BF8012818D1000300F01CF858
:101960000F2007F0F3FE01210903094801F0FFFCF5
:1019700000280BD10A2007F0E9FE012109030448E1
:1019800001F0F5FC002801D107F0A8FE10BD000011
:10199000800804407047000003498969020411432C
:1019A000014A916170470000007800400146044AF6
:1019B00092690A40002A01D0012000E0002070470F
:1019C0000078004070B50022002300213F4984794F
:1019D000002C73D00C4624680588AC430D462C605F
:1019E0000C4664680588AC430D466C6084786118C9
:1019F0000C6805882C430C60344CA4680588AC4303
:101A0000324DAC602C46E4680588AC432F4DEC6049
:101A10002C4624690588AC432C4D2C61C4782C2CB1
:101A200006DB2C46A46805882C43284DAC6005E0F5
:101A3000264CA4680588AC43244DAC60C4780F2CB8
:101A400002D0C4783F2C0CD1204CE46805882C438C
:101A50001E4DEC602C46246905882C431B4D2C61DF
:101A600008E01A49C478E406E40E61180C68058899
:101A70002C430C6000221DE001249440234604887E
:101A80001C409C4214D1052A12DA104C646A96005C
:101A90000F25B540AC430D4D6C6204794579AD001E
:101AA0002C439500AC40094D6D6A2C43074D6C6288
:101AB000541CE2B2102ADFDB06E0FFE784786118ED
:101AC0000C680588AC430C6070BD000000780040D5
:101AD00010B5072914DD134A126A0B46083B9C0017
:101AE0000F23A3409A430F4B1A621A46126A0B4601
:101AF000083B9C000346A3401A430A4B1A620FE0BE
:101B0000084AD2698C000F23A3409A43054BDA613F
:101B10001A46D2698C000346A3401A43014BDA618E
:101B200010BD000000780040054908680968054AB2
:101B30001143034A116004490143116070470000DA
:101B4000004804400008A55A0000A55A0349C96886
:101B500002041143014AD16070470000004804406C
:101B6000002002498862C862086370470048044048
:101B700030B504460C2500F031F905460C2D11D185
:101B80000021C943084600F00BF9084844610848A1
:101B90000649086100F022F9054600200349086162
:101BA000FFF7DEFFFFF7C0FF284630BD00480440C6
:101BB0000001B44B0448006901218903884340189F
:101BC00001490861704700000048044070B50446B0
:101BD0000D460C2600F002F906460C2E10D100210D
:101BE000C943084600F0DCF8074808490861258029
:101BF00000F0F4F80646002004490861FFF7B0FF42
:101C0000FFF792FF304670BD00034BB4004804401C
:101C1000FEB504460D4616461F460C2002900020D5
:101C200001900090FB20FFF791FFA002144940189B
:101C30004019009010E00198395A0098FFF7C6FF4C
:101C4000029002980C2806D10098801C0090019800
:101C5000801C019000E002E00198B042EBD300BF8D
:101C6000A002074940184019009002980C2805D19D
:101C70003A463146009800F09DF802900298FEBD69
:101C80000000FC0F70B50446002007E0A502054ED9
:101C9000AD196D182D5C1D705B1C401C9042F5D376
:101CA00070BD00000000FC0F174909690904C90F45
:101CB000002907D1144909690122D20391438918E7
:101CC000114A116110490969C904C90F002907D1D6
:101CD0000D49096901221203914389180A4A1161C9
:101CE000094909694904C90F00290CD00749064A66
:101CF0009160002802D10649916004E0012802D1D8
:101D00000449014A91607047004804405713DF9B23
:101D1000C3C3C3C3B4B4B4B400B50C231F48C06874
:101D20000121C9030840884201D1012333E01B4847
:101D3000C06810210840002801D005232BE0174877
:101D4000C06808210840002801D0062323E013487A
:101D5000C06820210840002801D004231BE00F4860
:101D6000C06840210840002801D0032313E00B483D
:101D7000C06880210840002801D002230BE00748FA
:101D8000C06802210840002801D0072303E00C238B
:101D90000120FFF7DBFE184600BD000000480440AC
:101DA000034A9062D1620122014B1A63704700001E
:101DB00000480440F0B503460C460C2000210025E5
:101DC0001D4607E02E78575CBE4201D00B20F0BDC7
:101DD0006D1C491CA142F5D300BFF8E708B50C20E3
:101DE0000090FFF799FF009002E0FFF795FF009049
:101DF000684600780128F8D06846007808BD0000E1
:101E000010B50E484078002802D0012812D108E011
:101E10000A4909780C225143094A891848688047C1
:101E200009E0064909780C225143054A8918886857
:101E3000804700E000BF00BF10BD0000A4010020EB
:101E400028D0000010B53048008800283BD02E482C
:101E50000088401E2C490880002431E002F0B2FCCA
:101E6000018906206043294A801840880201101A1F
:101E7000814223DA02F0A6FC018906206043234A4E
:101E8000801880880201101A814217DD0620604305
:101E90001E49085C1E490978884205D11D48007812
:101EA000401C1C49087008E0062060431749085C84
:101EB0001749087000201749087003E0601CC4B27D
:101EC000022CCBD300BF13480078052802DB00208A
:101ED0000D49088001F022FD007F012804D102F0A5
:101EE00071FC0021C1700EE001F018FD007F022896
:101EF00004D102F067FC0121C17004E002F062FC31
:101F000003490978C17010BDA800002084BF0000FB
:101F1000AC000020AA000020014614290CDA154864
:101F20000078FF2804DA13480078401C114A10702A
:101F30000020104A50700BE00E484078FF2804DA69
:101F40000C484078401C0B4A50700020094A107021
:101F500008480078062802DB0120074A107005486F
:101F60004078192802DB0020034A107002480078EC
:101F7000704700006E00002075000020FEB506F0DE
:101F80006BF801F043FC067B304601F04DFC044643
:101F90006078122802D1A07810280BD060780F2822
:101FA00002D1A078102805D0607810281ED1A07822
:101FB0000C281BD102F0DCFD2030C67F304605F036
:101FC0006BFB01F0ABFC067C3046FEF797FF074643
:101FD00002F0F8FB878001F0A1FC467C3046FEF75A
:101FE0009BFF074602F0EEFBC780B7E1607805284B
:101FF00002D1A078122805D06078052832D1A078C7
:1020000011282FD102F0B4FD2030C67F304605F0F4
:1020100043FB01F083FC067C01F080FC407D351819
:10202000FF2D01DA284600E0FF200546E8B2FEF762
:1020300065FF064602F0C6FB868001F06FFC467C19
:1020400001F06CFC807D3518FF2D01DA284600E098
:10205000FF200546E8B2FEF75FFF064602F0B2FB3E
:10206000C6807BE16078122802D1A07811280BD0BD
:1020700060780F2802D1A078112805D06078112847
:102080001ED1A0780C281BD102F072FD2030C67F33
:10209000304605F001FB01F041FC867B3046FEF73F
:1020A0002DFF074602F08EFB878001F037FC867C0F
:1020B0003046FEF731FF074602F084FBC7804DE152
:1020C00060780D281ED1A07810281BD102F050FD99
:1020D0002030C67F304605F0DFFA01F01FFCC67BDA
:1020E0003046FEF70BFF074602F06CFB878002F0DC
:1020F00069FB8688304601F0EFFB074602F062FB81
:10210000C7802BE160780F281ED1A0780A281BD148
:1021100002F02EFD2030C67F304605F0BDFA01F0FA
:10212000FDFBC67B3046FEF7E9FE074602F04AFBA0
:10213000878002F047FB8688304601F0CDFB0746DA
:1021400002F040FBC78009E16078112802D0607876
:10215000102868D1A078012808D0A078022805D0DE
:10216000A078032802D0A07804285CD1A0780128A8
:1021700001D100250DE0A078022801D1012508E059
:10218000A078032801D1022503E0A078042800D11B
:10219000032502F0EDFC2030C07FA84201DD284677
:1021A00003E002F0E5FC2030C07F0546E8B205F010
:1021B00073FA6078102810D101F0B0FB067C02F0B1
:1021C000D7FC0746143702F0E5FA807C4000381847
:1021D00001214156701885B20DE001F09FFB867B0E
:1021E00002F0C6FC0746143702F0D4FA807C4000A7
:1021F0003856301885B2FF2D01DDFF2000E028465B
:102200000546E8B2FEF77AFE064602F0DBFA868063
:1022100002F0D8FA8688304601F05EFB074602F0ED
:10222000D1FAC7809AE060780D281AD1A0780D28DD
:1022300017D101F0EBFA807BA149087002F098FCFD
:102240002030C07F9E490978884202DD9C48007892
:1022500003E002F08DFC2030C07F064605F01CFA3A
:102260007CE060780F2829D1A0780F2826D102F0D1
:102270007FFC2030C07F92490978884202DD904877
:10228000007803E002F074FC2030C07F064605F0C1
:1022900003FA01F0BBFA867B3046FEF73DFE0746A7
:1022A00002F090FAC78001F0B1FA867B304601F067
:1022B000E3F9074602F086FA87804FE0607812283B
:1022C00031D1A07812282ED102F052FC2030C07FEC
:1022D0007B490978884202DD7948007803E002F002
:1022E00047FC2030C07F064605F0D6F901F08EFA93
:1022F000807B092803DA01F089FA807B00E009205D
:102300000546E8B201F0DFF9064602F05BFA868086
:1023100002F058FA8688304601F0DEFA074602F0ED
:1023200051FAC7801AE002F023FC2030867F304645
:1023300005F0B2F901F0F2FA867B3046FEF7DEFDD9
:10234000074602F03FFA878001F0E8FA867C3046C3
:10235000FEF7E2FD074602F035FAC78002F032FAD6
:1023600040784009012802D0042005F08BF905F0DF
:10237000C3F805F0C7FB02F00DFA407D002811D02C
:1023800002F008FA068A02F01DFA8088864203DD10
:1023900002F000FA068A02E002F014FA868802F0DF
:1023A00011FA868002F00EFA40784007C00F00282C
:1023B0000FD144480088401C80B24249088032282E
:1023C0000ADB02F0FFF901218172052005F05AF9BC
:1023D00002E000203B49088002F0F4F9408A3A49C3
:1023E000884207DB02F0EEF906463636C08E401C06
:1023F000308003E002F0E6F90021C18602F0E2F944
:10240000C08EFF212D31884206DD02F0DBF9052167
:102410008172052005F036F902F0D4F900788007C2
:10242000C00F002806D102F06DFA009068460078CF
:10243000002808D002F0C6F903218172052005F0BA
:1024400021F904F0C5FC02F0BDF90078C007C00F07
:10245000002802DD00201B4988801A488088401C23
:1024600080B21849888064280ADB02F0ABF90021A9
:10247000C18002F0A7F902218172052005F002F95E
:1024800008F044F901900198FF2806D002F09AF96B
:1024900001998172052005F0F5F802F093F9407872
:1024A0008007C00F002806D002F08CF900784007A2
:1024B000C00F002802D1052005F0E4F8FEBD0000A1
:1024C000B5010020A60100205203000010B508212C
:1024D0000448FDF752FE012005F0CEF804F0F4FFA9
:1024E00010BD0000A601002010B502F06BF9407885
:1024F0004007C00F002804D002F064F90021C18019
:1025000005E001F087F9848902F05CF9C48010BD10
:1025100010B508210848FDF730FE02F053F90021FC
:10252000818002F04FF9002181700620FFF79AF8B0
:10253000012005F0A1F810BDA601002010B502F0A1
:1025400041F90021818002F03DF90021817001F004
:1025500061F9848902F036F9C48005F053F802F07D
:1025600031F9807A002803D0062005F08BF802E0CC
:10257000002005F087F810BD10B508210348FDF7CD
:10258000FCFD012005F078F810BD0000A601002038
:1025900010B502F017F90021818002F013F9002133
:1025A00081700620FFF75EF802F00CF9008E00281B
:1025B0000DD002F007F904463034008E401E208012
:1025C00001F028F9848902F0FDF8C48003E002F0EC
:1025D000F9F80021C18002F0F5F840788007C00FBB
:1025E000002808D002F0C8FA4078002803D102F091
:1025F000E9F8FF21C17202F0E5F840788007C00FCA
:10260000002803D102F0DEF8FF21817202F0DAF82F
:10261000807AFF2807D102F0D5F8C07AFF2802D1CE
:10262000002005F02FF802F0CDF840784007C00FE9
:10263000002811D002F0C6F8807A06280CD002F0EB
:10264000C1F8C07A062807D002F0BCF8044632343C
:10265000408E401C208003E002F0B4F80021418647
:1026600002F0B0F8408EFF21F531884206DB02F01F
:10267000A9F800218172092005F004F810BD0000BE
:1026800010B508210B48FDF778FD02F09BF80021FA
:10269000818002F097F8002181700620FEF7E2FFAA
:1026A000012004F0E9FF02F08DF8847A02F08AF844
:1026B000C47210BDA601002010B502F083F80021FD
:1026C000818002F07FF80021817001F0A3F88489F5
:1026D00002F078F8C48001F02FF9407CC007C00FE9
:1026E00000280CD101F028F9007C022807D002F064
:1026F00069F8FF21817202F065F8FF21C17202F0D2
:1027000061F8807AFF2802D1052004F0BBFF02F0B7
:1027100059F840784007C00F002811D002F052F855
:10272000807A062804D102F04DF8C07A062807D036
:1027300002F048F804463234408E401C208003E00A
:1027400002F040F80021418602F03CF8408EFF2163
:10275000F531884206DB02F035F80021817209204C
:1027600004F090FF10BD000010B508210348FDF7EC
:1027700004FD012004F080FF10BD0000A601002030
:1027800010B502F01FF80021818002F01BF8002133
:1027900081700620FEF766FF02F014F8008E002814
:1027A0000DD002F00FF804463034008E401E208019
:1027B00001F030F8848902F005F8C48003E002F0EB
:1027C00001F80021C18001F0FDFF00784007C00F33
:1027D000002812D001F0F6FF40788007C00F0028D3
:1027E0000BD01D480088401C80B21B49088001287E
:1027F00006DB012004F046FF02E0002016490880B5
:1028000001F0E0FF40784007C00F002811D001F030
:10281000D9FF807A06280CD001F0D4FFC07A0628B0
:1028200007D001F0CFFF04463234408E401C208098
:1028300003E001F0C7FF0021418601F0C3FF408E95
:10284000FF21F531884206DB01F0BCFF00218172D7
:10285000092004F017FF10BDA601002010B50120CB
:1028600004F00AFF08210748FDF787FC01F0AAFFE2
:102870000021818001F0A6FF002181700620FEF773
:10288000F1FE10BDA6010020F8B501F047F8C67BA7
:1028900001F048F8807B002804D101F093FF007B11
:1028A000002801D1701DC6B2B1480088401C80B21A
:1028B000AF490880282818DC01210620FEF7D2FE47
:1028C00001F080FF00218170FF20FEF717FB054615
:1028D00001F078FF85803046FEF710FBA54908809F
:1028E00001F070FF00218186A5E0A1480088322810
:1028F00018DC01210620FEF7B5FE01F063FF002180
:1029000081703046FEF7FAFA054601F05BFF8580DC
:1029100001F058FF80889749088001F053FF00219B
:10292000818688E092480088934988422ADB01F03A
:1029300049FF007B002807DD01F044FF05460C3508
:10294000077B781E287001E001F03CFF00208849D9
:10295000088001210620FEF785FE01F033FF0021EB
:102960008170FF20FEF7CAFA054601F02BFF858033
:102970003046FEF7C3FA7F49088001F023FF0021AB
:10298000818658E07A4800881921490188421FDB76
:1029900001F018FF007B002806D101F013FF012190
:1029A0008172052004F06EFE01F00CFF0021818091
:1029B00001F008FF002181700620FEF753FE00F0B1
:1029C000ADFF057C2846FEF799FA6A49088032E097
:1029D00001210620FEF746FE02F0CAF8054602F085
:1029E000C7F82030807F2D5C01F0ECFE857030460A
:1029F000FEF784FA054601F0E5FE85805F48007821
:102A00001E2813DD00205D49087000210620FEF716
:102A100029FE01F0D7FE40784009012803D10720A4
:102A200004F030FE02E0042004F02CFE01F0CAFEA7
:102A30008088504908804F48008804F0CDFD01F09F
:102A4000C1FE40784007C00F002812DD4B480078D7
:102A5000FF2805DA49480078401C4849087000E022
:102A600000BF01F0AFFE05463435808E401C288043
:102A700006E000204149087001F0A4FE0021818693
:102A800001F0A0FE808E642806DB01F09BFE06218B
:102A90008172052004F0F6FD01F094FE00784007F5
:102AA000C00F002806D001F08DFE40788007C00FCF
:102AB000002802D1052004F0E5FD01F083FE007836
:102AC0008007C00F002806D101F01CFF0090684667
:102AD0000078002806D001F075FE032181720520E0
:102AE00004F0D0FD01F06EFE0078C007C00F002892
:102AF00002DD00201E4988801D488088401C80B26D
:102B00001B49888064280ADB01F05CFE0021C1803B
:102B100001F058FE02218172052004F0B3FD01F09E
:102B200051FE058900F076FEC089854202DA002058
:102B30000F4948800E484088401C80B20C494880AC
:102B4000FF21F531884206DB01F03CFE082181724D
:102B5000052004F097FD07F0D9FD0446FF2C05D0B1
:102B600001F030FE8472052004F08CFDF8BD0000F9
:102B7000A6010020AE0100204C040000B00100209E
:102B800010B5012004F078FD08210448FDF7F5FA9E
:102B900001F018FE0121017310BD0000A601002004
:102BA00070B5002505F064FE05F0C6FD0546002D54
:102BB00006DD01F007FE03218172062004F062FDAC
:102BC00001F000FE00784007C00F002806D001F099
:102BD000F9FD40788007C00F002802D1002004F0E2
:102BE00051FD01F0EFFD00788007C00F002806D0EE
:102BF00001F0E8FD03218172062004F043FD07F097
:102C000085FD0446FF2C05D001F0DCFD8472062012
:102C100004F038FD00F08AFE012804D105F050FDD3
:102C2000022004F02FFD70BD10B5012004F024FD3A
:102C300008210848FDF7A1FA01F0C4FD00214186F2
:102C400001F0C0FD0021818601F0BCFD0021C1869C
:102C500010BD0000A6010020F8B50020009000F093
:102C60005DFE477C3846FEF757F90646FEF7D8FA70
:102C7000074601F0A7FDC78001F0A4FD0078C0075A
:102C8000C00F002847DD01F09DFD008964387F49B1
:102C90000988884202DA7D48068804E001F092FD46
:102CA00000890646643E01F08DFD0089643086424D
:102CB0000FDA01F087FD0089643874490988884279
:102CC00002DA7248008808E001F07CFD008964386F
:102CD00003E001F077FD0089643084B26B4800881E
:102CE000A04203D16A480088322803DC00206949E9
:102CF00008700AE067480078FF2805DA6548007820
:102D0000401C6449087000E000BF01F05BFD0089D1
:102D10005E49088004E000205C4908805D49087035
:102D20005B480088401C80B259490880192149013C
:102D3000884221DD01F046FD40784007C00F0028A1
:102D400055D101F03FFD0078C007C00F00280BD11E
:102D500001F038FD0221817201F034FD0021C180B3
:102D6000052004F08FFC42E001F02CFD0821817267
:102D7000052004F087FC3AE045480088962836DBB9
:102D800000F048FDC68900F045FD008A301A84B283
:102D90003F48008896384B21C900884203DA3C48F6
:102DA0000088963801E04B20C00080B20090009966
:102DB000614308464B21C900FDF79CF984B200F03D
:102DC00029FD008A001984B201F0FCFC0078C007DC
:102DD000C00F00280BDD2F480078322807DD01F0F6
:102DE000F1FC0089A04202DA032004F04BFC01F060
:102DF000E9FC00784007C00F002806D001F0E2FC93
:102E000040788007C00F002802D1002004F03AFC6F
:102E100001F0D8FC40784007C00F002807D001F02F
:102E2000D1FC06463436808E401C308003E001F031
:102E3000C9FC0021818601F0C5FC808E642806DB78
:102E400001F0C0FC06218172062004F01BFC01F099
:102E5000B9FC00788007C00F002803D105F06CFC96
:102E6000002806D001F0AEFC03218172052004F099
:102E700009FC07F04BFC0546FF2D05D001F0A2FC34
:102E80008572052004F0FEFBF8BD0000B2010020B1
:102E9000A6010020B401002010B5012004F0ECFBD5
:102EA00008210248FDF769F910BD0000A6010020C5
:102EB000F8B505F059F901F085FC8688304604F034
:102EC0008BFB01F067FC407D002811D001F07AFCFB
:102ED000868801F05FFC008A864203DD01F072FC07
:102EE000868802E001F056FC068A01F06BFC8680C1
:102EF00001F068FC40784007C00F002816D17648E2
:102F00000088FF2805DA74480088401C7249088050
:102F100000E000BF7048008805280ADB01F052FC81
:102F200001218172052004F0ADFB02E000206A4916
:102F3000088001F047FC40788007C00F002806D0C9
:102F400001F040FC00784007C00F002803D10520A5
:102F500004F098FB08E001F035FC407840090128B6
:102F600002D1072004F08EFB01F02CFC00788007D2
:102F7000C00F002806D101F0C5FC0090684600781B
:102F8000002808D001F01EFC03218172052004F006
:102F900079FB03F01DFF01F015FC0078C007C00F9E
:102FA000002802D000204C4948804B484088401CF3
:102FB00080B24949488032280ADB01F003FC022133
:102FC000817201F0FFFB0021C180052004F05AFB53
:102FD00001F0F8FB068900F01DFCC089864202DA88
:102FE00000203D4988803C488088401C80B23A4996
:102FF0008880FF21F531884206DB01F0E3FB0821E0
:103000008172052004F03EFB3348C088401C80B22A
:103010003149C880642816DB0020C88001F0D2FB4B
:1030200006462E36C08D401C308001F0CBFBC08D93
:103030002A49884203DA01F0C5FBC68D00E0274E1D
:1030400001F0C0FBC68500F069FCC07D012801D1FC
:10305000234D00E0234D01F0B5FBC08DA84206DDF5
:1030600001F0B0FB10218172052004F00BFB01F090
:10307000A9FB408A1C49884207DB01F0A3FB0646F6
:103080003636C08E401C308003E001F09BFB0021EF
:10309000C18601F097FBC08EFF212D31884206DDED
:1030A00001F090FB05218172052004F0EBFA07F096
:1030B0002DFB0446FF2C05D001F084FB8472052013
:1030C00004F0E0FA00F032FC042803D001F07AFBAF
:1030D0000021C185F8BD0000A6010020C43B00000E
:1030E000B80B0000FFFF00005203000010B50821DC
:1030F0000748FDF742F801F065FB0021C18505F0A6
:103100008BF804F0E1F9012004F0B6FA10BD0000DC
:10311000A601002010B50D480078401CC0B20B4934
:1031200008700A2800DA10BD00200849087005F070
:10313000ADFD00F0F1F905F0F3FD00F031F902F01A
:103140009FFB04F00FFA00BFEDE70000E90000204C
:1031500010B514210648FDF710F800F0E3FB0068F5
:103160000349086000F0DEFB40680149486010BD7B
:10317000600400200246501803B2012B01DA01203E
:1031800000E01846034698B2704702460023DB432E
:10319000981A814201D8501800E0081A70477CB58F
:1031A00005460C460121042003F06EFC009400212A
:1031B0006846017141718171C1716946284600F00C
:1031C00024F801222146284600F0A1F87CBD7CB5F8
:1031D00005460C460121042003F056FC0094002112
:1031E00068460171417181710121C17169462846AA
:1031F00000F00BF8009881B2284600F0C5F80122D3
:103200002146284600F083F87CBDF0B50A4600212F
:103210000023002438E001258D402B4615681D4011
:103220002C469C422FD1056801268E40B54305608F
:10323000056816798E40354305601579012D16D144
:10324000C5694F000126BE40B543C56155794E00A2
:10325000B540C6693543C561856901268E40B543D1
:103260008561856996798E40B6B235438561056A78
:103270004F000126BE40B5430562D5794E00B540EA
:10328000066A35430562491C1568CD40002DC2D140
:10329000F0BD7CB505460C460121042003F0F4FB8B
:1032A0000094012168460171002141718171C17151
:1032B00069462846FFF7A9FF009881B2284600F02A
:1032C00060F801222146284600F021F87CBD7CB53B
:1032D00005460C460121042003F0D6FB0094012191
:1032E0006846017100214171012181710021C17184
:1032F00069462846FFF789FF009881B2284600F00A
:1033000043F801222146284600F001F87CBDF0B5C3
:103310000B460021002425E001258D40ACB21D465E
:103320002540A5421CD107290EDDC56A4E07F70EC0
:103330000F26BE40B543C562C56A4E07F60E174656
:10334000B7403D43C5620BE0856A8F000F26BE4043
:10335000B5438562856A8E001746B7403D43856256
:103360004D1CE9B21D460D41002DD5D1F0BD0246E0
:10337000002053680B40002B01D0012000E000200A
:1033800070470A04C2607047C1607047034901601A
:103390000021017141718171C1717047FFFF00000F
:1033A00010B500F033FA40308079002804D000F0E6
:1033B000B5FA407E022808DB5548407C40084000B2
:1033C0005349487400200874A0E000F01FFA807987
:1033D000002811D107204E49087400F017FA002187
:1033E000417600F013FA002101764948407C4008FC
:1033F00040004749487489E000F008FA807E0128BF
:1034000011D103204249087400F000FA00214176EE
:1034100000F0FCF9002101763D48407C4008400066
:103420003B49487472E03A48007C072803D038488A
:10343000007C032807D10020354908740846407CE9
:103440004008400048743248007C00280FD100F04A
:1034500065FA407E80002F494018847800F0D6F944
:10346000007E844212DC0220294908740EE000F03C
:1034700055FA407E800027494018C47800F0C6F90C
:10348000007E844202DB0020214908742048407CF1
:10349000C007C00F002812D100F040FA407E800023
:1034A0001C490C5C00F0B2F9407E844219DC1848DB
:1034B000407C40084000401C1549487411E000F071
:1034C0002DFA407E800013494018447800F09EF9A0
:1034D000407E844205DB0E48407C400840000C4999
:1034E00048740B48407CC007C00F002803D108482F
:1034F000007C02280AD100F019FA082806D000F052
:1035000015FA062802D0082004F0BCF810BD00000F
:1035100060040020C8C4000010B5104800780028DE
:1035200005DD0E480078401E0C49087000E000BF21
:103530000A480078002810D10A200849087000F0D5
:10354000F5F9042809D101F0D9F9848D2146044800
:103550000068FFF71AFE0249086010BDD000002085
:10356000D400002070B501F019F9054600F0D6F935
:10357000047C06F02FF90B214156081984B2002D66
:1035800004D000F0CBF9407D001984B2FF2C01DAA1
:10359000204600E0FF200446E0B270BD10B500F008
:1035A000BDF9847BFF2C01DA204600E0FF200446B1
:1035B000E0B210BD0148008870470000980100206B
:1035C000F8B507460D4601F0D3FA2030C07FA84277
:1035D00001DD284603E001F0CBFA2030C07F05462C
:1035E00001F0C6FA001DA9004018468801F0C0FA93
:1035F000001DA900405A301A86B21E49498E7143F7
:1036000008467D21C900FCF775FD86B201F0B0FACD
:10361000001DA900445A1749498E614308467D217F
:10362000C900FCF767FD84B2A7421ADD381B84B2DB
:10363000002C01DD204600E00020B04205DA002C1D
:1036400001DD204602E0002000E03046044601F0A3
:10365000B9F8C08B604331460090FCF74BFD84B253
:1036600000E0002401F0AEF8808B001984B22046FF
:10367000F8BD00009E020020F8B504462046FDF784
:103680004BFC074601F006F80546284600F003F813
:1036900006463046F8BDF8B50446642C01DA2046EB
:1036A00000E06420044601F08DF8C08B60430646BC
:1036B0006421FCF71FFD074601F084F8808B381861
:1036C00085B22846F8BDF8B5044601F07BF8C08BFA
:1036D000604306460921FCF70DFD074601F072F82C
:1036E000808B381885B22846F8BD0000F8B504462E
:1036F00000F0F0F80646207BB04201DB002020738A
:10370000207B00284AD0207B3D490870607BAA2896
:103710003BD1207BC0003B49085C4007400F00289C
:1037200033D0A07B217BC900364A891849680870CC
:10373000207BC0001146401840780F2805D1207B1F
:10374000C000401880780A280CD0207BC0002D498A
:1037500040184078162818D1207BC0004018807887
:10376000052812D104F0ACFF01F002FA4030807954
:10377000C100081A2449451800F0D0F807460E3752
:10378000072229463846FCF7DFFC01F01BF8451CF0
:103790004078E02188432030287030E018480078D5
:1037A000002810D000201649087001F00BF8451CC5
:1037B0004078E0218843287000F0B0F800212030E4
:1037C000817007F011FB00F021F8C07B002807D1C1
:1037D00000F0F8FF451C4078E021884328700EE097
:1037E00000F0F0FF451C00F011F8C07B401C4001C8
:1037F000E021084007462878884338432870F8BD00
:10380000AB00002034BE000059BF000000487047E4
:10381000F601002000487047480200200148008857
:10382000704700003E0100200146C800014A801890
:103830007047000034BE000070B500F0C3FF068A78
:1038400000F0C0FF408A86421CDB00F0BBFF068A06
:1038500000F0B8FF408A301A84B20A212046FCF7F3
:103860005FFC84B2102C00DD10246001201860433E
:1038700015496143401885B214492846FCF750FCAD
:1038800084B216E000F09EFF468A00F09BFF008A9B
:10389000301A84B20A212046FCF742FC84B2102C74
:1038A00000DD1024A10160186421FCF739FC0546F5
:1038B000ECB2022C00DA0224082C00DD08240A20D5
:1038C0006043C0B270BD00006B040000DC05000066
:1038D000162070472220704770B504460025002648
:1038E000204600F0AFFE054607490988064A52887F
:1038F000891A694308466421FCF7FCFB02494988A0
:10390000401886B2304670BD480200200249887EC9
:1039100000228A7670470000BE02002000487047EF
:1039200038060020004870475C06002001480078F7
:1039300070470000A4010020004870476004002088
:10394000004870473C010020F1B586B001F010F945
:10395000071D00F01FFFC07C8000385A03904149CA
:10396000898E039A514308467D21C900FCF7C2FBAA
:1039700080B2039001F0FCF8071D00F00BFFC07C43
:1039800080003818458801F0F3F8071D00F002FFA9
:10399000C07C8000385A281A85B23249898E694322
:1039A00008467D21C900FCF7A5FB85B20921284600
:1039B000FCF7B6FB85B201244EE001F0D9F82230C5
:1039C0006100425E059201F0D3F82230611E490089
:1039D000465E284660430399401880B202907D23DA
:1039E000DB00059AD2180299514308461946FCF7A4
:1039F00081FB80B2029002990698884224DA601E08
:103A000068430399401880B201907D22D200B21819
:103A10000199514308467D21C900FCF76BFB80B238
:103A20000190019B069AD21A059B9B1B5A43104694
:103A3000019B029AD11AFCF773FB00B20490049820
:103A4000801900B2049009E001F092F82230610080
:103A5000405E0490601CC4B20A2CAEDB00BF049828
:103A600007B0F0BD9E02002070B5044600F0AAFE2B
:103A7000807B604306460448864200D900E0304619
:103A800085B2284670BD0000FFFF00000048704767
:103A90009400002070B500240025204800782049BB
:103AA0000871FFF73BFF407B062148431D49097819
:103AB00089001D4A5158401819490860FFF72EFF28
:103AC000807F012800D302E0FFF728FF857F0024D4
:103AD00019E00C206843154940184068E10040583F
:103AE0000F49096888420CD10C2068430F494018DF
:103AF0004068E1004018007909490979884200D1FD
:103B000008E0601CC4B20C206843084940184078A3
:103B1000A042DEDC00BF0648847170BD9C0000201E
:103B2000940000209D0000207CB70000C4B8000075
:103B30000004002010B51421FE48FCF71EFB0321F1
:103B4000FC481930FCF719FB2D21FA48801EC1767C
:103B500019211B3041700F2181707D20C000F54973
:103B60002239C88608870021F248801E81762030DD
:103B70008079002861D1F048EE492239C8610021DE
:103B8000EC48801E81770321C1778120E9492239E1
:103B900008708320487087208870E849E5482238FB
:103BA000C180E748E34922398880E649E148223864
:103BB0004181E5490181E549C181E54981810020D3
:103BC000DC49223948846221DA4822388184842100
:103BD000C1848B2101857A2141856E2181855B21FC
:103BE000C185452101863021418600218186002042
:103BF000D049223908750021CE4822384175817597
:103C0000C175017641760F21403001700D21417060
:103C1000022181700C21C1700821017104214171C0
:103C200023212038C17616211B3041700D2181706F
:103C30000A211B3801704170A3E2BE481E30807912
:103C4000012862D1C348BB492239C8610021B94863
:103C5000801E81770321C1778120B64922390870FF
:103C60008320487087208870B449B2482238C180C8
:103C7000B348B04922398880B249AE4822384181E0
:103C8000B1490181B149C181B14981810020A9496E
:103C9000223948846221A748223881848421C18442
:103CA0008B2101857A2141856E2181855B21C1852A
:103CB00045210186302141860021818600209D49D1
:103CC0002239087500219B48223841758175C175DC
:103CD000017641760F21403001700D2141700221A3
:103CE000817023212038C17616211B3041700D21AF
:103CF00081700C21401DC1700821017104214171A6
:103D00000A212038017041703BE28A481E308079D8
:103D1000022872D1904887492239C861002185481C
:103D2000801E81770321C1770320824922390870E0
:103D30000B204870052088700F20C87087497D4887
:103D40002238C18086487B49223988808549794854
:103D500022384181844901818449C181844981811A
:103D60008449418284490182002072492239488471
:103D700035217048223881844921C184732101850D
:103D8000742141856D2181855221C1853C210186A7
:103D9000212141860021818600206649223908754B
:103DA00000216448223841758175C17501764176DC
:103DB0008176C1760F21403001700D2141700221C2
:103DC000817037212038C17623211B3041701921A1
:103DD00081700C21401DC1700821017104214171C5
:103DE0000A212038017041707D20C00051492239DC
:103DF000C88664200887C4E1FFE74E481E308079FA
:103E0000032872D15D484B492239C86100214948D5
:103E1000801E81770321C17703204649223908702B
:103E20000B204870052088700F20C8704B4941480E
:103E30002238C1804A483F492239888049493D4853
:103E400022384181484901814849C18148498181DD
:103E50004849418248490182002036492239488434
:103E600035213448223881844921C1847321018558
:103E7000742141856D2181855221C1853C210186B6
:103E8000212141860021818600202A492239087596
:103E900000212848223841758175C1750176417627
:103EA0008176C1760F21403001700D2141700221D1
:103EB000817037212038C17623211B3041701921B0
:103EC00081700C21401DC1700821017104214171D4
:103ED0000A212038017041707D20C0001549223927
:103EE000C886642008874CE1FFE712481E308079BD
:103EF00004287DD122480F492239C86100210D488C
:103F0000801E81770321C17781200A4922390870F8
:103F100083204870872088700D496A31054822380F
:103F2000C1800F48963003492239888015490148DD
:103F3000223829E0E2030020B4B700009A280000EC
:103F4000ED100000A2510000DA2000007B76000096
:103F5000842F0000E0B700000CB800000D25000021
:103F60001C140000D742000047220000A574000086
:103F7000183A0000E8890000FF3D00003CB800004E
:103F800068B80000DC60000041817E4901817E4903
:103F9000C1817E49818100207D4948843C217C4843
:103FA00081846E21C184822101857821418564212B
:103FB00081855A21C1854621018632214186002111
:103FC000818600207249087500217148417581750C
:103FD000C175017641760F21403001700D2141708D
:103FE000022181702D212038C17619211B3000E07B
:103FF0000EE041700F2181700C21401DC17008211D
:104000000171042141710A21203801704170B8E02A
:104010005F4840308079052859D15E485C49C861C5
:1040200000215B48203081770221C17781205849E7
:104030000870832048708720887057495448C18091
:104040005648534988805649514841814D4901811C
:104050004D49C1814D49818100204D4948843C2111
:104060004B4881846E21C18482210185782141855C
:10407000642181855A21C1854621018632214186EC
:104080000021818600204249087500214048417581
:104090008175C175017641760F21403001700D2187
:1040A0004170022181702D212038C17619211B30E9
:1040B00041700F2181700C21401DC17008210171D8
:1040C000042141710A2120380170417059E03548BE
:1040D0002F49C86100212E48203081770221C17705
:1040E00081202B49087083204870872088702549DB
:1040F000EB312748C1802320C001254988802A4907
:1041000023484181294901812949C1812949818166
:1041100000201F49488446211D4881848221C18492
:104120008C2101854185782181855021C1854621D9
:1041300001863221418600218186002014490875BC
:104140000021134841758175C175017641760F21B3
:10415000403001700D214170022181702D212038E5
:10416000C17619211B3041700F2181700C21401D37
:10417000C17008210171042141710A2120380170A8
:10418000417010BD052800000B9E00001B40000080
:10419000C003002094B80000EE2F0000B21400000D
:1041A000DC6000000CB80000204E0000F01E000093
:1041B00011860000C2330000F8B506460D461620F1
:1041C00068432149085AB04201DC00273AE0162032
:1041D00068431D494018808AB04201DB1B4F31E023
:1041E00000242CE01620684317494118601C400049
:1041F000085AB04221DC1620684313494018610078
:10420000415A16206843104A8218601C4000105A18
:10421000081A87B2162169430B4A89186200895A25
:10422000891B6422514308463946FBF763FF074662
:1042300064206043C01987B203E0601CC4B20A2C3A
:10424000D0DB00BF3846F8BD64BB0000E7030000C8
:10425000F0B589B0002002900190009000244EE05B
:10426000092C32D100F0AEFA078A00F0ABFA808A4E
:1042700087420ADD00F0A6FA078A00F0A3FA808AD6
:10428000381AE100AD4A505203E00020E100AB4A89
:10429000505200F097FA807BE100A84A89184880C4
:1042A00000F090FA807BA6490988401A00B2E1002C
:1042B000A24A89188880A348408DA3490988401ADA
:1042C00000B2E1008918C88008E0621CD2009B4B54
:1042D000D118E200D0180822FBF736FFE00097491A
:1042E000095A0298081880B20290E00093494018D9
:1042F00041880198081880B20190601C84B20A2C91
:10430000AEDB00F05FFA807B8D4908808D48408DE0
:104310008D4908808D480078002805DD8B4800789D
:10432000401E8A49087000E000BF894800780028D4
:1043300005DD87480078401E8549087000E000BF11
:104340008348007800287DD182480078002806DD67
:104350000A20FFF789FB06900520079005E0002062
:10436000FFF782FB069005200790092500200590A5
:104370000026049033E0E80070494018C088801996
:1043800006B2E800401881880498081800B204902A
:10439000311E01DB0A4600E04A42069B9A4218DBC6
:1043A0000498002801DB024600E04242079B9A4243
:1043B0000FDB0120059000206749087065480570F3
:1043C000681C6249087000250498002801DA012061
:1043D0000090002D02DD681EC5B200E007E05D48D8
:1043E0000078A84203DC59480078A842C3DD00BF2A
:1043F00058480078002873DD37461420FFF734FB57
:10440000002F01DB394600E07942884205DA0A21B3
:104410004C482030417400210176FCF719FC0098CB
:1044200000285DD1059800282FDD4A48057800F066
:10443000B1F9877C4349488D3946FFF7C1F806B288
:10444000404800E073E0408DE9003C4A89180622AC
:104450008A5E8018089041490898884201DD084624
:1044600000E0089880B2039000F094F9877C394608
:104470000398FFF7A5F8301A06B23248008D710094
:10448000401A00B22F4908852AE0092500F082F978
:10449000877C2C49488D3946FFF792F806B22948A7
:1044A000408DE900254A891806228A5E8018089006
:1044B0002A490898884201DD084600E0089880B241
:1044C000039000F067F9877C39460398FFF778F886
:1044D000301A06B21B48008D801B00B219490885AE
:1044E0000598002803DD00201B49087024E01948C6
:1044F000007800280DDD174800780A21081A1649AF
:104500000978884208DC0020124908700D490885A6
:1045100002E000200B4908850F480078FF2805DAE3
:104520000D480078401C0C49087005E004E00020AC
:10453000044908850749087009B0F0BD70030020E0
:10454000840000209E0200208600002081000020C0
:104550007C0000208000002082000020FFFF00007F
:10456000F0B585B006460C4600200490FFF7D6F95A
:10457000477CFFF7D3F9807C381AC0B20090FCF773
:10458000CBFC039009210398FBF7CAFD80B203908E
:10459000FFF7C4F9877C3846FCF7BEFC0290002088
:1045A0000190002510E00298B04202D10120019054
:1045B00010E00298B04200DD0CE003990298401828
:1045C00080B20290681CC5B2A800001940881C493E
:1045D0008842E8DB00BFA800001940880490184911
:1045E0000498884205DBA8000019001F4088049049
:1045F00022E00198002804DDA800001940880490FA
:104600001AE0A90009194A88A9000919091F49884F
:10461000511A039B029AD21AB21A514308461946FC
:10462000FBF77EFD80B20490A8000019001F4188AE
:104630000498081880B20490049805B0F0BD0000FA
:104640000F270000F8B50446FEF78CFF0090FCF73A
:1046500055FC0646FEF7A2FF0090FCF74FFC05460E
:10466000AC4201DD204600E02846B04205DAAC420B
:1046700001DD204602E0284600E030460446711B7A
:10468000621B64235A431046FBF734FDC7B2384619
:10469000F8BD000070B5044613484088A04201DA16
:1046A000204601E0104840880F490988884208DA0E
:1046B0000D484088A04201DA204604E00A484088BC
:1046C00001E0094800880446074A1288064B5B88C7
:1046D000D11A054A5288A21A64235A431046FBF79E
:1046E00009FDC5B2284670BD4802002070B5FFF72D
:1046F00019F9807D002801D1114C1EE0FFF712F955
:10470000807D01280FD10F480088002801D10C4C72
:1047100013E00A210C480088FBF702FD09490988CB
:10472000081A84B209E001F0CFFD05460A210648C7
:104730000088FBF7F5FC281A84B2204670BD000003
:10474000FFFF0000F80000200001002010B50A481B
:104750000088002801D1FF240BE0074800883C288E
:1047600001DA012405E03C2103480088FBF7D8FC6E
:10477000C4B2204610BD0000F800002010B54B2147
:10478000C90003480068FBF7B5FC84B2204610BDA1
:10479000FC000020004870473A04002010B50024B7
:1047A000FFF7C4F807280BD0FFF730F8007C0B2880
:1047B00005D0FFF72BF82030C07A002800D0012464
:1047C000204610BD0048704760020020F8B54A48F6
:1047D000C07B0F2807DD4848807B282803DDFF21A8
:1047E0004548817316E04448807B282812DDFFF796
:1047F000E9FF078AFFF7E6FF408A381A142809DA2A
:104800003D48807B782801DA782001E03A48807BB7
:10481000394988733848807B78283DDA00F0A8F958
:10482000071D00F0A5F92030C07F800038184688A9
:1048300000F09EF98088301A86B23101881B64210D
:10484000FBF758FC86B200F093F980882A4920399A
:10485000898D081A84B2B4421CDD0024FFF7B2FF30
:10486000078AFFF7AFFF408A874216DDFFF7AAFFEE
:10487000078AFFF7A7FF408A381A84B20A216143EA
:1048800008466421FBF736FC84B22046FFF7ECF8BB
:10489000044602E0002400E0002417482038808D00
:1048A000001984B2FFF776FF877C39462046FEF771
:1048B00087FE0546FFF786FF808BA84201DA2F4668
:1048C00002E0FFF77FFF878BFFF77CFF408B87427B
:1048D0000ADAFFF777FF808BA84201DA284606E064
:1048E000FFF770FF808B02E0FFF76CFF408B0249FF
:1048F00020394884F8BD0000BE02002000487047FF
:104900009E02002008B503480178009169460978A5
:10491000084608BD7C01002010B5012109030248AA
:10492000FEF725FD10BD00000009044010B501216F
:10493000C9020248FEF71BFD10BD0000000904403B
:10494000004870475604002010B5002408E01421E8
:104950006143054A88181421FBF70FFC601CC4B2A0
:10496000022CF4DB10BD0000480500200146142095
:104970004843014A105A70474805002070B500248A
:10498000EBE014206043774940184088764988421C
:104990000DDB14206043734A8018418000211420ED
:1049A000604311521420604380188180D3E01420AA
:1049B00060436C49401880790028F7D01420604388
:1049C0004018818914206043664A801840898142DA
:1049D00011DA1420604311464018458914206043C1
:1049E000401881891420604380184181142060435D
:1049F000114640188581142060435A494018C189E6
:104A000014206043574A80184089814210DB1420EB
:104A1000604311464018C189142060438018808982
:104A2000814205DC1420604311464018C58916E018
:104A3000142060434B494018C18914206043494AFF
:104A400080184089814205DA1420604311464018DD
:104A5000458904E014206043424940188589002CB0
:104A600027D12846FCF7CAF80546FA2D00DDFA25BD
:104A7000142060433B49085A401DA84205DD14201C
:104A80006043095A681D814219DB1420604335498F
:104A9000085A1E2813DC142060430D5200211420F4
:104AA0006043304A8018017214206043801801610D
:104AB00056E0012C03D12846FCF78AF8054614205D
:104AC000604328494018007A401CC1B2142060435A
:104AD000244A80180172142060431146401800696E
:104AE00041191420604380180161002C0BD114205F
:104AF00060431146401800691C49884203D91420BC
:104B00006043801801611420604316494018007A00
:104B10000A2816DB002114206043124A8018017213
:104B200014216143891808690A21FBF7E3FA81B26D
:104B3000142060430B4A1152002114206043801856
:104B40000161002114206043064A8018C1711420BD
:104B5000604380188171601CC4B2022C00DA10E737
:104B600000BF70BD480500204C1D0000C4090000B6
:104B700000487047C003002000487047ED00002047
:104B80000549064A116011460968034A0243114368
:104B9000024A1160704700000000A55A00740040EE
:104BA0000148024948607047AAAA0000007400400A
:104BB00002E0024802494860FBE70000AAAA0000A0
:104BC0000074004010B500200021002200BF33E037
:104BD0001D4B1B7801248440234019461A4B5B78F7
:104BE0000124844023401A468A421FD0164B9B1C46
:104BF0001B5C142B0BDB144B5C78012383409C4320
:104C0000114B5C705B780B430F4C637012E00E4BE2
:104C10009B1C1B5CFF2B08DA0B4B9B1C1B5C5B1C5F
:104C2000DCB2094B9B1C1C5404E003E00024064B3F
:104C30009B1C1C54431CD8B20828C9DB034C024BF4
:104C40005B78237010BD0000E80400203C010020C8
:104C500010B540211548FEF78AFBC407E40F14483D
:104C600000784008400020431149087001210903E1
:104C70000E48FEF77CFB40000221084004460C4829
:104C80000078884320430A490870012149030748F6
:104C90008038FEF76CFB800004210840044604487D
:104CA0000078884320430249087010BD0009044081
:104CB000E804002010B5FEF7A9FD007C0E282FD1D6
:104CC00018480068002803D8FEF730FE04280AD1EF
:104CD00014480068002805D012480068401E114999
:104CE00008601DE01CE0FEF791FD072140300174D3
:104CF000FEF718FEC47AFEF789FD0474FEF712FE73
:104D0000047AFEF783FD4474FEF70CFE447AFEF746
:104D10007DFD8474FEF706FE847AFEF777FDC47489
:104D200010BD0000B000002001490880704700005D
:104D30009401002070B53349087BFEF775FD0546E8
:104D4000FFF740FD40783049C870287808712D4839
:104D5000007B487168788871A878C87168680078A5
:104D6000087268780D2809D1A8780E2806D1FFF7B7
:104D700029FDC078401C2449487208E0FFF722FD55
:104D800006893C213046FBF7CBF91F494872FFF7F3
:104D900019FD807AFF2803D0FFF714FD847A09E01B
:104DA000FFF710FDC07AFF2803D0FFF70BFDC47A90
:104DB00000E0FF2414488472FFF704FD468A0A21AC
:104DC0003046FBF7ADF9C4B2FFF7FCFC468A0A2176
:104DD0003046FBF7A5F9052901DD601CC4B20A487D
:104DE000C472FEF79BFD407B074908730548C47DEC
:104DF000FFF7C2FE0078042800D104430248447340
:104E000070BD0000F6010020B80100201348407B6F
:104E10001349C87011480D30407808710F480D30A3
:104E2000807848710D480D30C07888710B480D307E
:104E30000079C87109480D304079087207480D3073
:104E40008079487205480D30C079887203480D306A
:104E5000007AC87200200873487370471602002059
:104E6000B8010020704770477047704770B5002048
:104E70002949C87004200871FEF708FE00680588FB
:104E80000A212846FBF74CF9234948712348007C46
:104E900088710024FEF742FDC07D002801DD8020DE
:104EA0000443FFF74DFD007AC007C00F002801DD65
:104EB000082004431848C471FFF784FC807B16491E
:104EC0000872FFF77FFC858A0A212846FBF728F93C
:104ED000C4B2FFF777FC858A0A212846FBF720F940
:104EE000052901DD601CC4B20B484472FEF78EFC3C
:104EF000407C09498872FEF789FC807C0649C872AB
:104F0000FEF784FCC07C04490873FEF7E3FC401EF6
:104F10000149487370BD0000B8010020F60100206F
:104F200010B5FEF709FDC08900121E49C870FEF7D2
:104F300003FD807B1B490871FEF7FEFC808900128F
:104F400018494871FEF7F8FC007B16498871FEF796
:104F5000F3FC0068000E1349C871FEF7EDFC006811
:104F60000002000E0F490872FEF7E6FC00880004FC
:104F7000000E0C494872FEF7DFFC00780949887280
:104F8000FEF7A6FC401E0749C872FFF7D9FC00884F
:104F9000001204490873FFF7D3FC007801494873F5
:104FA00010BD0000B801002070B5FEF7B7FC007C12
:104FB0003449C870FEF7B2FC807B32490871FFF7B4
:104FC00001FC85882846FBF78BFF2E494871FFF7C7
:104FD000F9FBC58D3C212846FBF7A2F829498871C9
:104FE000FEF7AAFC4068000E2649C871FEF7A4FC33
:104FF00040680002000E23490872FEF79DFC80887D
:105000000004000E1F494872FEF796FC00791D4906
:1050100088720024FEF790FC407C0007C00F002837
:1050200001DD402004431748C472042005F088FBCA
:10503000002801D0002407E0FFF7C4FB058B0A21FC
:105040002846FBF76DF8C4B20E4804730024FFF73E
:1050500077FC007A8007C00FC0010443FFF770FCA3
:10506000C07900012043C4B2FEF766FC407C800793
:10507000C00FC0000443FEF75FFC007C04430148FE
:10508000447370BDB801002070B53948007F3949BC
:10509000C8703748407F0871FFF794FB807B354923
:1050A000487100208871FFF78DFB858A0A21284608
:1050B000FBF736F8C4B22F48C4710024FFF75CFD3B
:1050C0000078002801D002200443FFF755FD007846
:1050D000032801D120200443FFF74EFDC07880074C
:1050E000C00F002801DD08200443FEF725FC407CAA
:1050F0004007C00F002801DD402004431D48047212
:105100001B48007E1B4948720024194820308079D2
:10511000012801D10820044315482030C079012816
:1051200001D11020044312482030007A012801D117
:10513000202004430E482030C07A012801D180206D
:1051400004430D480078002801DD4020044309484D
:105150008472FFF737FB2030807A0649C872FFF768
:1051600031FB2030C07A034908730020487370BDBA
:10517000F6010020B80100205600002070B5284834
:1051800000782849C87026484078087124488078FB
:1051900048710020887100242148407A012800D1FC
:1051A00004431F4820300079012801D10220044324
:1051B0001B48C07E012801D1082004431A4800780A
:1051C000002808DDFFF7FEFA4078C007C00F00286E
:1051D00001DD102004431248807D80012043C4B2C9
:1051E000FFF7B4FAFF2801D0202004430D48C47112
:1051F0000B48007E0B490872FFF778FA054609490B
:105200004D7228128872FFF7A1FA0649C872FFF79B
:10521000B5FA054603490D732812487370BD0000A6
:1052200016020020B80100205600002010B52748C3
:10523000C0782749C870254800790871234840790B
:1052400048712248C07E8871002420482030407870
:10525000002801DD012004431C482030807800280C
:1052600001DD04200443194820304079002801DD85
:1052700020200443154820308079002801DD40209B
:1052800004431348C471002410482038407E44066B
:10529000640EFEF751FB407CC007C00F002801DD03
:1052A000802004430A4804720848007F0849487275
:1052B0000648407F88720548807FC8720348C07FD7
:1052C0000873024820300078487310BD1602002091
:1052D000B801002010B51E48C0781E49C8700020D3
:1052E0000871487100241A48C07A04431848807A2B
:1052F000C0002043C4B204F033FC00780001204316
:10530000C4B21448847112482038407B1149C871D6
:105310000F481338407808720D4813388078487267
:10532000FFF750FA2030007B0A49887200240848B1
:10533000407B002801DD202004430548807B044396
:105340000448C472002003490873487310BD00006C
:1053500036020020B801002070B5FFF733FA00894B
:1053600000122349C870FFF72DFA007A204908710E
:10537000FEF754FA04467D21C900614308461D49E1
:10538000FAF7B8FE84B22012194948718C7104F002
:1053900021FA448820121649C8710C72FEF70AF9E6
:1053A00004467D21C900614308461349FAF7A2FE6D
:1053B00084B220120E4948728C720025FEF7AEFAB4
:1053C000C07F002801D00120054304F003FA407992
:1053D0008007400F054304F0FDF900798007C00EF7
:1053E00005430348C572002001490873487370BD26
:1053F000B8010020E02E0000701700007047000088
:1054000010B5402001F04CFC012829D101F0BAFB75
:1054100014490870032001F091FC012001F070FC98
:1054200000BF01F049FC0028FBD0002001F09AFCED
:10543000002001F049FC00BF012001F045FC01E023
:10544000FFF7AEFB01F038FC0028F9D0802001F016
:105450007BFB012001F086FC0248007801F06EFC25
:1054600010BD000004000020C206D20E01219140B0
:10547000014A11607047000080E100E010B500288B
:1054800019DA1A4A03071B0F083B9B089B00D258E6
:105490008307DC0EFF23A3409A438B071B0E840770
:1054A000E40EA3401A43114B0407240F083CA40840
:1054B000A4001A5118E00E4A03231B02D2188308D5
:1054C0009B00D2588307DC0EFF23A3409A438B072F
:1054D0001B0E8407E40EA3401A43054B0324240249
:1054E0001B198408A4001A5110BD00001CED00E037
:1054F00000E100E003488068932109040843014962
:105500008860704700640040154A1160154AC26205
:10551000134A126812684260114A12685268C260E7
:105520000F4A1268926802610D4A1268D26842619D
:105530000B4A126812698261094A12685269C26193
:10554000074A126892690262054A1268D269426289
:10555000034A1268126A82620022C2627047000027
:1055600034010020CC330000064AC262002902D078
:105570000122026002E00122D24302600022C262E4
:1055800070470000CC330000044BC362002901D1F6
:10559000426200E082620023C3627047CC330000A5
:1055A0000168C908C9000160402201689143016097
:1055B00092010168914301605200016891430160CA
:1055C0009200016891430160032212040168914333
:1055D000016038220168914301601F22D2010168F5
:1055E00091430160012292030168914301600168C7
:1055F0008903890B01609211416991434161C02285
:1056000041699143416130224169914341610822DE
:10561000416991434161042241699143416141697A
:10562000890889004161818AC905C90D41619201DA
:10563000816991438161C0228169914381613022F6
:1056400081699143816108228169914381610422CA
:105650008169914381618169890889008161018B38
:10566000C905C90D8161002141608160C16001618E
:10567000C16101627047000070B504460025208CAE
:105680000A21FAF74DFD2084E28BA37B5A43104692
:10569000218CFAF72FFD86B214202A498880012038
:1056A000C88005200881208A618A401A05B22548F1
:1056B0008188C068281A41432248C0886843091875
:1056C0002048C0684000281A1E4A126980181D4AE6
:1056D0001289504308181B4908600846C0680861D1
:1056E0000846C5600068FF21F531884203DD0846A1
:1056F0001449086007E0134800681349884202DA39
:105700000846104908600F4840690E49096840186A
:105710000C49486108464069C1170123DB07DA17C5
:10572000C01A914102DAD0070649486100BF054915
:10573000496971430846FF21F531FAF7F1FC00B2DF
:1057400070BD0000AC0600200CFEFFFF10B50A4A39
:1057500042604A8882608A88C260CA8802610268A0
:105760000E239A430B785B000E2423401A430260F9
:105770000022426010BD0000A55A0000074A4260A6
:10578000002904D0026801231A43026003E0026882
:10579000520852000260002242607047A55A000081
:1057A00010B5124B436080230B40002B0BD0012A15
:1057B00005D003688024A3438033036003E00368BB
:1057C0008024A343036040230B40002B0BD0012A0D
:1057D00004D003684024A343036004E0036840242A
:1057E000A343403303600023436010BDA55A00006B
:1057F000024A4260C160002242607047A55A000020
:105800007047000000200349C860086108604861D3
:1058100070470000AC0600201748007A07280BD11B
:1058200015482030407E002820DD1448407880064E
:10583000400F1149087219E00F48007A0F49497862
:105840008906490F884211D10B48017A401C405CFF
:10585000002808D009488078C008012806D10648E9
:10586000C07A002802D107200349087200210248AB
:105870002030417670470000F60100204C000020E7
:1058800070B55D480078002805DD5B480078401E53
:105890005949087000E000BFFFF76EF9007803284F
:1058A00018D0FFF769F90078012813D0FFF764F9E1
:1058B000007802280ED032204F49087000204F494E
:1058C00008704F48407C042188434D4948740020AB
:1058D0004C4908704C480078FF2805DA4A4800789F
:1058E000401C4949087000E000BF4748007805287F
:1058F00043DB41480078002837D1FEF763FF807B07
:10590000424909880C1A0920C043844214DB0A2C3E
:1059100012DC3A480078FF2805DA38480078401C45
:105920003649087000E000BF3448007814281CDBBA
:1059300000203449087018E00020304908703148D0
:105940000078FF2805DA2F480078401C2D490870A0
:1059500000E000BF2B480078032806DD2848407C83
:1059600004218843001D26494874FEF72BFF807BE5
:1059700026490880002024490870FDF7D7FF042835
:1059800030D1FDF747FFC0895C21484306466421BA
:10599000FAF7B0FB85B2FEF715FF0089A84203DADB
:1059A00000201B4908700AE019480078FF2805DA32
:1059B00017480078401C1649087000E000BF1448E2
:1059C0000078322807DB0E48407C082188430830E5
:1059D0000B4948740FE00A48407C08218843084975
:1059E000487408E00648407C08218843044948740C
:1059F00000200749087070BDE4000020E30000208B
:105A000060040020E5000020E2000020E00000200B
:105A1000E800002070B5002400F0CEFD0646FDF73A
:105A200085FF042804D1FDF7F1FEC07D002803D1D5
:105A300000202C49087053E0012E03D10020294991
:105A400008704DE028480078F821884326490978F5
:105A5000C908491CC900F8221140084322490870AE
:105A600008460078C00805283ADB08460078F82187
:105A700088431D490870002505E068001B49085A45
:105A80000419681CC5B2042DF7DBA410FEF79AFEBA
:105A9000807B241A142C03DB0020124908701FE0BD
:105AA000FEF790FE807B104909784907090F0F4ADD
:105AB00050520D480078C008C0000B490978491CB5
:105AC0004907490F0843084908700846007840070D
:105AD000400F042804DB08460078C008C0000870A6
